{
  "contractName": "KlimaToken",
  "abi": [
    {
      "inputs": [
        {
          "internalType": "string",
          "name": "_name",
          "type": "string"
        },
        {
          "internalType": "string",
          "name": "_symbol",
          "type": "string"
        }
      ],
      "stateMutability": "nonpayable",
      "type": "constructor"
    },
    {
      "inputs": [
        {
          "internalType": "address",
          "name": "",
          "type": "address"
        }
      ],
      "name": "balances",
      "outputs": [
        {
          "internalType": "uint256",
          "name": "",
          "type": "uint256"
        }
      ],
      "stateMutability": "view",
      "type": "function",
      "constant": true
    },
    {
      "inputs": [],
      "name": "totalSupply",
      "outputs": [
        {
          "internalType": "uint256",
          "name": "",
          "type": "uint256"
        }
      ],
      "stateMutability": "view",
      "type": "function",
      "constant": true
    },
    {
      "inputs": [],
      "name": "balanceOf",
      "outputs": [
        {
          "internalType": "uint256",
          "name": "",
          "type": "uint256"
        }
      ],
      "stateMutability": "view",
      "type": "function",
      "constant": true
    },
    {
      "inputs": [
        {
          "internalType": "uint256",
          "name": "amount",
          "type": "uint256"
        }
      ],
      "name": "transfer",
      "outputs": [
        {
          "internalType": "bool",
          "name": "",
          "type": "bool"
        }
      ],
      "stateMutability": "nonpayable",
      "type": "function"
    }
  ],
  "bytecode": "0x60806040523480156200001157600080fd5b5060405162000bd138038062000bd18339818101604052810190620000379190620002c7565b81600290805190602001906200004f9291906200007a565b508060039080519060200190620000689291906200007a565b506103e86001819055505050620003b1565b82805462000088906200037b565b90600052602060002090601f016020900481019282620000ac5760008555620000f8565b82601f10620000c757805160ff1916838001178555620000f8565b82800160010185558215620000f8579182015b82811115620000f7578251825591602001919060010190620000da565b5b5090506200010791906200010b565b5090565b5b80821115620001265760008160009055506001016200010c565b5090565b6000604051905090565b600080fd5b600080fd5b600080fd5b600080fd5b6000601f19601f8301169050919050565b7f4e487b7100000000000000000000000000000000000000000000000000000000600052604160045260246000fd5b620001938262000148565b810181811067ffffffffffffffff82111715620001b557620001b462000159565b5b80604052505050565b6000620001ca6200012a565b9050620001d8828262000188565b919050565b600067ffffffffffffffff821115620001fb57620001fa62000159565b5b620002068262000148565b9050602081019050919050565b60005b838110156200023357808201518184015260208101905062000216565b8381111562000243576000848401525b50505050565b6000620002606200025a84620001dd565b620001be565b9050828152602081018484840111156200027f576200027e62000143565b5b6200028c84828562000213565b509392505050565b600082601f830112620002ac57620002ab6200013e565b5b8151620002be84826020860162000249565b91505092915050565b60008060408385031215620002e157620002e062000134565b5b600083015167ffffffffffffffff81111562000302576200030162000139565b5b620003108582860162000294565b925050602083015167ffffffffffffffff81111562000334576200033362000139565b5b620003428582860162000294565b9150509250929050565b7f4e487b7100000000000000000000000000000000000000000000000000000000600052602260045260246000fd5b600060028204905060018216806200039457607f821691505b60208210811415620003ab57620003aa6200034c565b5b50919050565b61081080620003c16000396000f3fe608060405234801561001057600080fd5b506004361061004c5760003560e01c806312514bba1461005157806318160ddd1461008157806327e235e31461009f578063722713f7146100cf575b600080fd5b61006b6004803603810190610066919061038a565b6100ed565b60405161007891906103d2565b60405180910390f35b610089610104565b60405161009691906103fc565b60405180910390f35b6100b960048036038101906100b49190610475565b61010e565b6040516100c691906103fc565b60405180910390f35b6100d7610126565b6040516100e491906103fc565b60405180910390f35b60006100fa30338461016c565b5060019050919050565b6000600154905090565b60006020528060005260406000206000915090505481565b60008060003373ffffffffffffffffffffffffffffffffffffffff1673ffffffffffffffffffffffffffffffffffffffff16815260200190815260200160002054905090565b60008073ffffffffffffffffffffffffffffffffffffffff168473ffffffffffffffffffffffffffffffffffffffff1614156101dd576040517f08c379a00000000000000000000000000000000000000000000000000000000081526004016101d490610525565b60405180910390fd5b600073ffffffffffffffffffffffffffffffffffffffff168373ffffffffffffffffffffffffffffffffffffffff16141561024d576040517f08c379a0000000000000000000000000000000000000000000000000000000008152600401610244906105b7565b60405180910390fd5b600060015411610292576040517f08c379a00000000000000000000000000000000000000000000000000000000081526004016102899061066f565b60405180910390fd5b60015482106102d6576040517f08c379a00000000000000000000000000000000000000000000000000000000081526004016102cd90610701565b60405180910390fd5b81600160008282546102e89190610750565b92505081905550816000808573ffffffffffffffffffffffffffffffffffffffff1673ffffffffffffffffffffffffffffffffffffffff168152602001908152602001600020600082825461033d9190610784565b92505081905550600190509392505050565b600080fd5b6000819050919050565b61036781610354565b811461037257600080fd5b50565b6000813590506103848161035e565b92915050565b6000602082840312156103a05761039f61034f565b5b60006103ae84828501610375565b91505092915050565b60008115159050919050565b6103cc816103b7565b82525050565b60006020820190506103e760008301846103c3565b92915050565b6103f681610354565b82525050565b600060208201905061041160008301846103ed565b92915050565b600073ffffffffffffffffffffffffffffffffffffffff82169050919050565b600061044282610417565b9050919050565b61045281610437565b811461045d57600080fd5b50565b60008135905061046f81610449565b92915050565b60006020828403121561048b5761048a61034f565b5b600061049984828501610460565b91505092915050565b600082825260208201905092915050565b7f45524332303a207472616e736665722066726f6d20746865207a65726f20616460008201527f6472657373000000000000000000000000000000000000000000000000000000602082015250565b600061050f6025836104a2565b915061051a826104b3565b604082019050919050565b6000602082019050818103600083015261053e81610502565b9050919050565b7f45524332303a207472616e7366657220746f20746865207a65726f206164647260008201527f6573730000000000000000000000000000000000000000000000000000000000602082015250565b60006105a16023836104a2565b91506105ac82610545565b604082019050919050565b600060208201905081810360008301526105d081610594565b9050919050565b7f5468657265206d75737420626520746f6b656e42616c616e6365206c6566742060008201527f696e2074686520636f6e747261637420696e206f7264657220746f2073656e6460208201527f204b4c494d4120746f6b656e7300000000000000000000000000000000000000604082015250565b6000610659604d836104a2565b9150610664826105d7565b606082019050919050565b600060208201905081810360008301526106888161064c565b9050919050565b7f436f6e747261637420646f6573206e6f7420686176652074686973206d75636860008201527f20746f6b656e206e756d626572206c6566740000000000000000000000000000602082015250565b60006106eb6032836104a2565b91506106f68261068f565b604082019050919050565b6000602082019050818103600083015261071a816106de565b9050919050565b7f4e487b7100000000000000000000000000000000000000000000000000000000600052601160045260246000fd5b600061075b82610354565b915061076683610354565b92508282101561077957610778610721565b5b828203905092915050565b600061078f82610354565b915061079a83610354565b9250827fffffffffffffffffffffffffffffffffffffffffffffffffffffffffffffffff038211156107cf576107ce610721565b5b82820190509291505056fea26469706673582212207db0fe9bca6a8080cdccf14356a8d3468f6f6fcdf08db4d82408f2c525008aeb64736f6c634300080c0033",
  "immutableReferences": {},
  "source": "// SPDX-License-Identifier: MIT\r\n\r\npragma solidity ^0.8.0;\r\n\r\nimport \"@openzeppelin/contracts/token/ERC20/IERC20.sol\";\r\n\r\ncontract KlimaToken {\r\n\r\n\r\nmapping(address => uint256) public balances;\r\n\r\nuint256 allTokens;\r\nstring private name;\r\nstring private symbol;\r\n\r\n\r\nconstructor(string memory _name, string memory _symbol)  {\r\n    name = _name;\r\n    symbol = _symbol;\r\n    allTokens = 1000;  \r\n}\r\n\r\nfunction totalSupply() external view returns(uint256){\r\n    return allTokens;\r\n}\r\n\r\nfunction balanceOf() external view returns(uint256){\r\n    return balances[msg.sender];\r\n}\r\n\r\nfunction transfer(uint256 amount) external returns(bool){\r\n    _transfer(address(this), msg.sender, amount);\r\n    return true;\r\n}\r\n\r\nfunction _transfer(address _from, address _to, uint256 _amount) private returns(bool){\r\n    require(_from != address(0), \"ERC20: transfer from the zero address\");\r\n    require(_to != address(0), \"ERC20: transfer to the zero address\");\r\n    require(allTokens > 0, \"There must be tokenBalance left in the contract in order to send KLIMA tokens\");\r\n    require(_amount < allTokens, \"Contract does not have this much token number left\");\r\n\r\n    allTokens -= _amount;\r\n    balances[_to] += _amount;\r\n\r\n    return true;\r\n }\r\n\r\n}",
  "sourcePath": "C:/Users/Riki/Desktop/Solidity/Nft Bonfire/contracts/KlimaToken.sol",
  "compiler": {
    "name": "solc",
    "version": "0.8.12+commit.f00d7308.Emscripten.clang"
  },
  "schemaVersion": "3.3.4",
  "updatedAt": "2022-03-11T10:29:21.236Z",
  "networkType": "ethereum",
  "devdoc": {
    "kind": "dev",
    "methods": {},
    "version": 1
  },
  "userdoc": {
    "kind": "user",
    "methods": {},
    "version": 1
  }
}