{
  "contractName": "MemorialNFT",
  "abi": [
    {
      "inputs": [
        {
          "internalType": "address",
          "name": "_k",
          "type": "address"
        }
      ],
      "stateMutability": "nonpayable",
      "type": "constructor"
    },
    {
      "anonymous": false,
      "inputs": [
        {
          "indexed": true,
          "internalType": "address",
          "name": "owner",
          "type": "address"
        },
        {
          "indexed": true,
          "internalType": "address",
          "name": "approved",
          "type": "address"
        },
        {
          "indexed": true,
          "internalType": "uint256",
          "name": "tokenId",
          "type": "uint256"
        }
      ],
      "name": "Approval",
      "type": "event"
    },
    {
      "anonymous": false,
      "inputs": [
        {
          "indexed": true,
          "internalType": "address",
          "name": "owner",
          "type": "address"
        },
        {
          "indexed": true,
          "internalType": "address",
          "name": "operator",
          "type": "address"
        },
        {
          "indexed": false,
          "internalType": "bool",
          "name": "approved",
          "type": "bool"
        }
      ],
      "name": "ApprovalForAll",
      "type": "event"
    },
    {
      "anonymous": false,
      "inputs": [
        {
          "indexed": true,
          "internalType": "address",
          "name": "from",
          "type": "address"
        },
        {
          "indexed": true,
          "internalType": "address",
          "name": "to",
          "type": "address"
        },
        {
          "indexed": true,
          "internalType": "uint256",
          "name": "tokenId",
          "type": "uint256"
        }
      ],
      "name": "Transfer",
      "type": "event"
    },
    {
      "inputs": [
        {
          "internalType": "address",
          "name": "to",
          "type": "address"
        },
        {
          "internalType": "uint256",
          "name": "tokenId",
          "type": "uint256"
        }
      ],
      "name": "approve",
      "outputs": [],
      "stateMutability": "nonpayable",
      "type": "function"
    },
    {
      "inputs": [
        {
          "internalType": "address",
          "name": "owner",
          "type": "address"
        }
      ],
      "name": "balanceOf",
      "outputs": [
        {
          "internalType": "uint256",
          "name": "",
          "type": "uint256"
        }
      ],
      "stateMutability": "view",
      "type": "function",
      "constant": true
    },
    {
      "inputs": [
        {
          "internalType": "uint256",
          "name": "tokenId",
          "type": "uint256"
        }
      ],
      "name": "getApproved",
      "outputs": [
        {
          "internalType": "address",
          "name": "",
          "type": "address"
        }
      ],
      "stateMutability": "view",
      "type": "function",
      "constant": true
    },
    {
      "inputs": [
        {
          "internalType": "address",
          "name": "owner",
          "type": "address"
        },
        {
          "internalType": "address",
          "name": "operator",
          "type": "address"
        }
      ],
      "name": "isApprovedForAll",
      "outputs": [
        {
          "internalType": "bool",
          "name": "",
          "type": "bool"
        }
      ],
      "stateMutability": "view",
      "type": "function",
      "constant": true
    },
    {
      "inputs": [],
      "name": "name",
      "outputs": [
        {
          "internalType": "string",
          "name": "",
          "type": "string"
        }
      ],
      "stateMutability": "view",
      "type": "function",
      "constant": true
    },
    {
      "inputs": [
        {
          "internalType": "uint256",
          "name": "tokenId",
          "type": "uint256"
        }
      ],
      "name": "ownerOf",
      "outputs": [
        {
          "internalType": "address",
          "name": "",
          "type": "address"
        }
      ],
      "stateMutability": "view",
      "type": "function",
      "constant": true
    },
    {
      "inputs": [
        {
          "internalType": "address",
          "name": "from",
          "type": "address"
        },
        {
          "internalType": "address",
          "name": "to",
          "type": "address"
        },
        {
          "internalType": "uint256",
          "name": "tokenId",
          "type": "uint256"
        }
      ],
      "name": "safeTransferFrom",
      "outputs": [],
      "stateMutability": "nonpayable",
      "type": "function"
    },
    {
      "inputs": [
        {
          "internalType": "address",
          "name": "from",
          "type": "address"
        },
        {
          "internalType": "address",
          "name": "to",
          "type": "address"
        },
        {
          "internalType": "uint256",
          "name": "tokenId",
          "type": "uint256"
        },
        {
          "internalType": "bytes",
          "name": "_data",
          "type": "bytes"
        }
      ],
      "name": "safeTransferFrom",
      "outputs": [],
      "stateMutability": "nonpayable",
      "type": "function"
    },
    {
      "inputs": [
        {
          "internalType": "address",
          "name": "operator",
          "type": "address"
        },
        {
          "internalType": "bool",
          "name": "approved",
          "type": "bool"
        }
      ],
      "name": "setApprovalForAll",
      "outputs": [],
      "stateMutability": "nonpayable",
      "type": "function"
    },
    {
      "inputs": [
        {
          "internalType": "bytes4",
          "name": "interfaceId",
          "type": "bytes4"
        }
      ],
      "name": "supportsInterface",
      "outputs": [
        {
          "internalType": "bool",
          "name": "",
          "type": "bool"
        }
      ],
      "stateMutability": "view",
      "type": "function",
      "constant": true
    },
    {
      "inputs": [],
      "name": "symbol",
      "outputs": [
        {
          "internalType": "string",
          "name": "",
          "type": "string"
        }
      ],
      "stateMutability": "view",
      "type": "function",
      "constant": true
    },
    {
      "inputs": [
        {
          "internalType": "uint256",
          "name": "tokenId",
          "type": "uint256"
        }
      ],
      "name": "tokenURI",
      "outputs": [
        {
          "internalType": "string",
          "name": "",
          "type": "string"
        }
      ],
      "stateMutability": "view",
      "type": "function",
      "constant": true
    },
    {
      "inputs": [
        {
          "internalType": "address",
          "name": "from",
          "type": "address"
        },
        {
          "internalType": "address",
          "name": "to",
          "type": "address"
        },
        {
          "internalType": "uint256",
          "name": "tokenId",
          "type": "uint256"
        }
      ],
      "name": "transferFrom",
      "outputs": [],
      "stateMutability": "nonpayable",
      "type": "function"
    },
    {
      "inputs": [],
      "name": "retrieveKT",
      "outputs": [
        {
          "internalType": "address",
          "name": "",
          "type": "address"
        }
      ],
      "stateMutability": "view",
      "type": "function",
      "constant": true
    },
    {
      "inputs": [
        {
          "internalType": "address",
          "name": "_oldNFT",
          "type": "address"
        },
        {
          "internalType": "uint256",
          "name": "amountToSend",
          "type": "uint256"
        },
        {
          "internalType": "uint256",
          "name": "_id",
          "type": "uint256"
        }
      ],
      "name": "remint",
      "outputs": [],
      "stateMutability": "nonpayable",
      "type": "function"
    }
  ],
  "bytecode": "0x608060405260016007553480156200001657600080fd5b50604051620032603803806200326083398181016040528101906200003c91906200023e565b6040518060400160405280600c81526020017f4d656d6f7269616c204e465400000000000000000000000000000000000000008152506040518060400160405280600281526020017f4d4e0000000000000000000000000000000000000000000000000000000000008152508160009080519060200190620000c092919062000124565b508060019080519060200190620000d992919062000124565b50505080600860006101000a81548173ffffffffffffffffffffffffffffffffffffffff021916908373ffffffffffffffffffffffffffffffffffffffff16021790555050620002d5565b82805462000132906200029f565b90600052602060002090601f016020900481019282620001565760008555620001a2565b82601f106200017157805160ff1916838001178555620001a2565b82800160010185558215620001a2579182015b82811115620001a157825182559160200191906001019062000184565b5b509050620001b19190620001b5565b5090565b5b80821115620001d0576000816000905550600101620001b6565b5090565b600080fd5b600073ffffffffffffffffffffffffffffffffffffffff82169050919050565b60006200020682620001d9565b9050919050565b6200021881620001f9565b81146200022457600080fd5b50565b60008151905062000238816200020d565b92915050565b600060208284031215620002575762000256620001d4565b5b6000620002678482850162000227565b91505092915050565b7f4e487b7100000000000000000000000000000000000000000000000000000000600052602260045260246000fd5b60006002820490506001821680620002b857607f821691505b60208210811415620002cf57620002ce62000270565b5b50919050565b612f7b80620002e56000396000f3fe608060405234801561001057600080fd5b50600436106100f55760003560e01c806370a0823111610097578063c87b56dd11610066578063c87b56dd14610282578063dc384bfb146102b2578063e985e9c5146102ce578063fff0d624146102fe576100f5565b806370a08231146101fc57806395d89b411461022c578063a22cb4651461024a578063b88d4fde14610266576100f5565b8063095ea7b3116100d3578063095ea7b31461017857806323b872dd1461019457806342842e0e146101b05780636352211e146101cc576100f5565b806301ffc9a7146100fa57806306fdde031461012a578063081812fc14610148575b600080fd5b610114600480360381019061010f9190611bb3565b61031c565b6040516101219190611bfb565b60405180910390f35b6101326103fe565b60405161013f9190611caf565b60405180910390f35b610162600480360381019061015d9190611d07565b610490565b60405161016f9190611d75565b60405180910390f35b610192600480360381019061018d9190611dbc565b610515565b005b6101ae60048036038101906101a99190611dfc565b61062d565b005b6101ca60048036038101906101c59190611dfc565b61068d565b005b6101e660048036038101906101e19190611d07565b6106ad565b6040516101f39190611d75565b60405180910390f35b61021660048036038101906102119190611e4f565b61075f565b6040516102239190611e8b565b60405180910390f35b610234610817565b6040516102419190611caf565b60405180910390f35b610264600480360381019061025f9190611ed2565b6108a9565b005b610280600480360381019061027b9190612047565b6108bf565b005b61029c60048036038101906102979190611d07565b610921565b6040516102a99190611caf565b60405180910390f35b6102cc60048036038101906102c791906120ca565b610a73565b005b6102e860048036038101906102e3919061211d565b610cc4565b6040516102f59190611bfb565b60405180910390f35b610306610d58565b6040516103139190611d75565b60405180910390f35b60007f80ac58cd000000000000000000000000000000000000000000000000000000007bffffffffffffffffffffffffffffffffffffffffffffffffffffffff1916827bffffffffffffffffffffffffffffffffffffffffffffffffffffffff191614806103e757507f5b5e139f000000000000000000000000000000000000000000000000000000007bffffffffffffffffffffffffffffffffffffffffffffffffffffffff1916827bffffffffffffffffffffffffffffffffffffffffffffffffffffffff1916145b806103f757506103f682610d82565b5b9050919050565b60606000805461040d9061218c565b80601f01602080910402602001604051908101604052809291908181526020018280546104399061218c565b80156104865780601f1061045b57610100808354040283529160200191610486565b820191906000526020600020905b81548152906001019060200180831161046957829003601f168201915b5050505050905090565b600061049b82610dec565b6104da576040517f08c379a00000000000000000000000000000000000000000000000000000000081526004016104d190612230565b60405180910390fd5b6004600083815260200190815260200160002060009054906101000a900473ffffffffffffffffffffffffffffffffffffffff169050919050565b6000610520826106ad565b90508073ffffffffffffffffffffffffffffffffffffffff168373ffffffffffffffffffffffffffffffffffffffff161415610591576040517f08c379a0000000000000000000000000000000000000000000000000000000008152600401610588906122c2565b60405180910390fd5b8073ffffffffffffffffffffffffffffffffffffffff166105b0610e58565b73ffffffffffffffffffffffffffffffffffffffff1614806105df57506105de816105d9610e58565b610cc4565b5b61061e576040517f08c379a000000000000000000000000000000000000000000000000000000000815260040161061590612354565b60405180910390fd5b6106288383610e60565b505050565b61063e610638610e58565b82610f19565b61067d576040517f08c379a0000000000000000000000000000000000000000000000000000000008152600401610674906123e6565b60405180910390fd5b610688838383610ff7565b505050565b6106a8838383604051806020016040528060008152506108bf565b505050565b6000806002600084815260200190815260200160002060009054906101000a900473ffffffffffffffffffffffffffffffffffffffff169050600073ffffffffffffffffffffffffffffffffffffffff168173ffffffffffffffffffffffffffffffffffffffff161415610756576040517f08c379a000000000000000000000000000000000000000000000000000000000815260040161074d90612478565b60405180910390fd5b80915050919050565b60008073ffffffffffffffffffffffffffffffffffffffff168273ffffffffffffffffffffffffffffffffffffffff1614156107d0576040517f08c379a00000000000000000000000000000000000000000000000000000000081526004016107c79061250a565b60405180910390fd5b600360008373ffffffffffffffffffffffffffffffffffffffff1673ffffffffffffffffffffffffffffffffffffffff168152602001908152602001600020549050919050565b6060600180546108269061218c565b80601f01602080910402602001604051908101604052809291908181526020018280546108529061218c565b801561089f5780601f106108745761010080835404028352916020019161089f565b820191906000526020600020905b81548152906001019060200180831161088257829003601f168201915b5050505050905090565b6108bb6108b4610e58565b838361125e565b5050565b6108d06108ca610e58565b83610f19565b61090f576040517f08c379a0000000000000000000000000000000000000000000000000000000008152600401610906906123e6565b60405180910390fd5b61091b848484846113cb565b50505050565b606061092c82610dec565b61096b576040517f08c379a00000000000000000000000000000000000000000000000000000000081526004016109629061259c565b60405180910390fd5b600060066000848152602001908152602001600020805461098b9061218c565b80601f01602080910402602001604051908101604052809291908181526020018280546109b79061218c565b8015610a045780601f106109d957610100808354040283529160200191610a04565b820191906000526020600020905b8154815290600101906020018083116109e757829003601f168201915b505050505090506000610a15611427565b9050600081511415610a2b578192505050610a6e565b600082511115610a60578082604051602001610a489291906125f8565b60405160208183030381529060405292505050610a6e565b610a698461143e565b925050505b919050565b610a9c7f80ac58cd0000000000000000000000000000000000000000000000000000000061031c565b610adb576040517f08c379a0000000000000000000000000000000000000000000000000000000008152600401610ad290612668565b60405180910390fd5b6000604051806080016040528060428152602001612e806042913990506000604051806080016040528060428152602001612f046042913990506000604051806080016040528060428152602001612ec2604291399050610b4e33600754604051806020016040528060008152506114e5565b60026007541415610b6a57610b6560075483611540565b610b94565b60036007541415610b8657610b8160075482611540565b610b93565b610b9260075484611540565b5b5b8573ffffffffffffffffffffffffffffffffffffffff166323b872dd3330876040518463ffffffff1660e01b8152600401610bd193929190612688565b600060405180830381600087803b158015610beb57600080fd5b505af1158015610bff573d6000803e3d6000fd5b50505050600860009054906101000a900473ffffffffffffffffffffffffffffffffffffffff1673ffffffffffffffffffffffffffffffffffffffff1663a9059cbb33876040518363ffffffff1660e01b8152600401610c609291906126bf565b6020604051808303816000875af1158015610c7f573d6000803e3d6000fd5b505050506040513d601f19601f82011682018060405250810190610ca391906126fd565b5060076000815480929190610cb790612759565b9190505550505050505050565b6000600560008473ffffffffffffffffffffffffffffffffffffffff1673ffffffffffffffffffffffffffffffffffffffff16815260200190815260200160002060008373ffffffffffffffffffffffffffffffffffffffff1673ffffffffffffffffffffffffffffffffffffffff16815260200190815260200160002060009054906101000a900460ff16905092915050565b6000600860009054906101000a900473ffffffffffffffffffffffffffffffffffffffff16905090565b60007f01ffc9a7000000000000000000000000000000000000000000000000000000007bffffffffffffffffffffffffffffffffffffffffffffffffffffffff1916827bffffffffffffffffffffffffffffffffffffffffffffffffffffffff1916149050919050565b60008073ffffffffffffffffffffffffffffffffffffffff166002600084815260200190815260200160002060009054906101000a900473ffffffffffffffffffffffffffffffffffffffff1673ffffffffffffffffffffffffffffffffffffffff1614159050919050565b600033905090565b816004600083815260200190815260200160002060006101000a81548173ffffffffffffffffffffffffffffffffffffffff021916908373ffffffffffffffffffffffffffffffffffffffff160217905550808273ffffffffffffffffffffffffffffffffffffffff16610ed3836106ad565b73ffffffffffffffffffffffffffffffffffffffff167f8c5be1e5ebec7d5bd14f71427d1e84f3dd0314c0f7b2291e5b200ac8c7c3b92560405160405180910390a45050565b6000610f2482610dec565b610f63576040517f08c379a0000000000000000000000000000000000000000000000000000000008152600401610f5a90612814565b60405180910390fd5b6000610f6e836106ad565b90508073ffffffffffffffffffffffffffffffffffffffff168473ffffffffffffffffffffffffffffffffffffffff161480610fdd57508373ffffffffffffffffffffffffffffffffffffffff16610fc584610490565b73ffffffffffffffffffffffffffffffffffffffff16145b80610fee5750610fed8185610cc4565b5b91505092915050565b8273ffffffffffffffffffffffffffffffffffffffff16611017826106ad565b73ffffffffffffffffffffffffffffffffffffffff161461106d576040517f08c379a0000000000000000000000000000000000000000000000000000000008152600401611064906128a6565b60405180910390fd5b600073ffffffffffffffffffffffffffffffffffffffff168273ffffffffffffffffffffffffffffffffffffffff1614156110dd576040517f08c379a00000000000000000000000000000000000000000000000000000000081526004016110d490612938565b60405180910390fd5b6110e88383836115b4565b6110f3600082610e60565b6001600360008573ffffffffffffffffffffffffffffffffffffffff1673ffffffffffffffffffffffffffffffffffffffff16815260200190815260200160002060008282546111439190612958565b925050819055506001600360008473ffffffffffffffffffffffffffffffffffffffff1673ffffffffffffffffffffffffffffffffffffffff168152602001908152602001600020600082825461119a919061298c565b92505081905550816002600083815260200190815260200160002060006101000a81548173ffffffffffffffffffffffffffffffffffffffff021916908373ffffffffffffffffffffffffffffffffffffffff160217905550808273ffffffffffffffffffffffffffffffffffffffff168473ffffffffffffffffffffffffffffffffffffffff167fddf252ad1be2c89b69c2b068fc378daa952ba7f163c4a11628f55a4df523b3ef60405160405180910390a46112598383836115b9565b505050565b8173ffffffffffffffffffffffffffffffffffffffff168373ffffffffffffffffffffffffffffffffffffffff1614156112cd576040517f08c379a00000000000000000000000000000000000000000000000000000000081526004016112c490612a2e565b60405180910390fd5b80600560008573ffffffffffffffffffffffffffffffffffffffff1673ffffffffffffffffffffffffffffffffffffffff16815260200190815260200160002060008473ffffffffffffffffffffffffffffffffffffffff1673ffffffffffffffffffffffffffffffffffffffff16815260200190815260200160002060006101000a81548160ff0219169083151502179055508173ffffffffffffffffffffffffffffffffffffffff168373ffffffffffffffffffffffffffffffffffffffff167f17307eab39ab6107e8899845ad3d59bd9653f200f220920489ca2b5937696c31836040516113be9190611bfb565b60405180910390a3505050565b6113d6848484610ff7565b6113e2848484846115be565b611421576040517f08c379a000000000000000000000000000000000000000000000000000000000815260040161141890612ac0565b60405180910390fd5b50505050565b606060405180602001604052806000815250905090565b606061144982610dec565b611488576040517f08c379a000000000000000000000000000000000000000000000000000000000815260040161147f90612b52565b60405180910390fd5b6000611492611427565b905060008151116114b257604051806020016040528060008152506114dd565b806114bc84611746565b6040516020016114cd9291906125f8565b6040516020818303038152906040525b915050919050565b6114ef83836118a7565b6114fc60008484846115be565b61153b576040517f08c379a000000000000000000000000000000000000000000000000000000000815260040161153290612ac0565b60405180910390fd5b505050565b61154982610dec565b611588576040517f08c379a000000000000000000000000000000000000000000000000000000000815260040161157f90612be4565b60405180910390fd5b806006600084815260200190815260200160002090805190602001906115af929190611aa4565b505050565b505050565b505050565b60006115df8473ffffffffffffffffffffffffffffffffffffffff16611a81565b15611739578373ffffffffffffffffffffffffffffffffffffffff1663150b7a02611608610e58565b8786866040518563ffffffff1660e01b815260040161162a9493929190612c59565b6020604051808303816000875af192505050801561166657506040513d601f19601f820116820180604052508101906116639190612cba565b60015b6116e9573d8060008114611696576040519150601f19603f3d011682016040523d82523d6000602084013e61169b565b606091505b506000815114156116e1576040517f08c379a00000000000000000000000000000000000000000000000000000000081526004016116d890612ac0565b60405180910390fd5b805181602001fd5b63150b7a0260e01b7bffffffffffffffffffffffffffffffffffffffffffffffffffffffff1916817bffffffffffffffffffffffffffffffffffffffffffffffffffffffff19161491505061173e565b600190505b949350505050565b6060600082141561178e576040518060400160405280600181526020017f300000000000000000000000000000000000000000000000000000000000000081525090506118a2565b600082905060005b600082146117c05780806117a990612759565b915050600a826117b99190612d16565b9150611796565b60008167ffffffffffffffff8111156117dc576117db611f1c565b5b6040519080825280601f01601f19166020018201604052801561180e5781602001600182028036833780820191505090505b5090505b6000851461189b576001826118279190612958565b9150600a856118369190612d47565b6030611842919061298c565b60f81b81838151811061185857611857612d78565b5b60200101907effffffffffffffffffffffffffffffffffffffffffffffffffffffffffffff1916908160001a905350600a856118949190612d16565b9450611812565b8093505050505b919050565b600073ffffffffffffffffffffffffffffffffffffffff168273ffffffffffffffffffffffffffffffffffffffff161415611917576040517f08c379a000000000000000000000000000000000000000000000000000000000815260040161190e90612df3565b60405180910390fd5b61192081610dec565b15611960576040517f08c379a000000000000000000000000000000000000000000000000000000000815260040161195790612e5f565b60405180910390fd5b61196c600083836115b4565b6001600360008473ffffffffffffffffffffffffffffffffffffffff1673ffffffffffffffffffffffffffffffffffffffff16815260200190815260200160002060008282546119bc919061298c565b92505081905550816002600083815260200190815260200160002060006101000a81548173ffffffffffffffffffffffffffffffffffffffff021916908373ffffffffffffffffffffffffffffffffffffffff160217905550808273ffffffffffffffffffffffffffffffffffffffff16600073ffffffffffffffffffffffffffffffffffffffff167fddf252ad1be2c89b69c2b068fc378daa952ba7f163c4a11628f55a4df523b3ef60405160405180910390a4611a7d600083836115b9565b5050565b6000808273ffffffffffffffffffffffffffffffffffffffff163b119050919050565b828054611ab09061218c565b90600052602060002090601f016020900481019282611ad25760008555611b19565b82601f10611aeb57805160ff1916838001178555611b19565b82800160010185558215611b19579182015b82811115611b18578251825591602001919060010190611afd565b5b509050611b269190611b2a565b5090565b5b80821115611b43576000816000905550600101611b2b565b5090565b6000604051905090565b600080fd5b600080fd5b60007fffffffff0000000000000000000000000000000000000000000000000000000082169050919050565b611b9081611b5b565b8114611b9b57600080fd5b50565b600081359050611bad81611b87565b92915050565b600060208284031215611bc957611bc8611b51565b5b6000611bd784828501611b9e565b91505092915050565b60008115159050919050565b611bf581611be0565b82525050565b6000602082019050611c106000830184611bec565b92915050565b600081519050919050565b600082825260208201905092915050565b60005b83811015611c50578082015181840152602081019050611c35565b83811115611c5f576000848401525b50505050565b6000601f19601f8301169050919050565b6000611c8182611c16565b611c8b8185611c21565b9350611c9b818560208601611c32565b611ca481611c65565b840191505092915050565b60006020820190508181036000830152611cc98184611c76565b905092915050565b6000819050919050565b611ce481611cd1565b8114611cef57600080fd5b50565b600081359050611d0181611cdb565b92915050565b600060208284031215611d1d57611d1c611b51565b5b6000611d2b84828501611cf2565b91505092915050565b600073ffffffffffffffffffffffffffffffffffffffff82169050919050565b6000611d5f82611d34565b9050919050565b611d6f81611d54565b82525050565b6000602082019050611d8a6000830184611d66565b92915050565b611d9981611d54565b8114611da457600080fd5b50565b600081359050611db681611d90565b92915050565b60008060408385031215611dd357611dd2611b51565b5b6000611de185828601611da7565b9250506020611df285828601611cf2565b9150509250929050565b600080600060608486031215611e1557611e14611b51565b5b6000611e2386828701611da7565b9350506020611e3486828701611da7565b9250506040611e4586828701611cf2565b9150509250925092565b600060208284031215611e6557611e64611b51565b5b6000611e7384828501611da7565b91505092915050565b611e8581611cd1565b82525050565b6000602082019050611ea06000830184611e7c565b92915050565b611eaf81611be0565b8114611eba57600080fd5b50565b600081359050611ecc81611ea6565b92915050565b60008060408385031215611ee957611ee8611b51565b5b6000611ef785828601611da7565b9250506020611f0885828601611ebd565b9150509250929050565b600080fd5b600080fd5b7f4e487b7100000000000000000000000000000000000000000000000000000000600052604160045260246000fd5b611f5482611c65565b810181811067ffffffffffffffff82111715611f7357611f72611f1c565b5b80604052505050565b6000611f86611b47565b9050611f928282611f4b565b919050565b600067ffffffffffffffff821115611fb257611fb1611f1c565b5b611fbb82611c65565b9050602081019050919050565b82818337600083830152505050565b6000611fea611fe584611f97565b611f7c565b90508281526020810184848401111561200657612005611f17565b5b612011848285611fc8565b509392505050565b600082601f83011261202e5761202d611f12565b5b813561203e848260208601611fd7565b91505092915050565b6000806000806080858703121561206157612060611b51565b5b600061206f87828801611da7565b945050602061208087828801611da7565b935050604061209187828801611cf2565b925050606085013567ffffffffffffffff8111156120b2576120b1611b56565b5b6120be87828801612019565b91505092959194509250565b6000806000606084860312156120e3576120e2611b51565b5b60006120f186828701611da7565b935050602061210286828701611cf2565b925050604061211386828701611cf2565b9150509250925092565b6000806040838503121561213457612133611b51565b5b600061214285828601611da7565b925050602061215385828601611da7565b9150509250929050565b7f4e487b7100000000000000000000000000000000000000000000000000000000600052602260045260246000fd5b600060028204905060018216806121a457607f821691505b602082108114156121b8576121b761215d565b5b50919050565b7f4552433732313a20617070726f76656420717565727920666f72206e6f6e657860008201527f697374656e7420746f6b656e0000000000000000000000000000000000000000602082015250565b600061221a602c83611c21565b9150612225826121be565b604082019050919050565b600060208201905081810360008301526122498161220d565b9050919050565b7f4552433732313a20617070726f76616c20746f2063757272656e74206f776e6560008201527f7200000000000000000000000000000000000000000000000000000000000000602082015250565b60006122ac602183611c21565b91506122b782612250565b604082019050919050565b600060208201905081810360008301526122db8161229f565b9050919050565b7f4552433732313a20617070726f76652063616c6c6572206973206e6f74206f7760008201527f6e6572206e6f7220617070726f76656420666f7220616c6c0000000000000000602082015250565b600061233e603883611c21565b9150612349826122e2565b604082019050919050565b6000602082019050818103600083015261236d81612331565b9050919050565b7f4552433732313a207472616e736665722063616c6c6572206973206e6f74206f60008201527f776e6572206e6f7220617070726f766564000000000000000000000000000000602082015250565b60006123d0603183611c21565b91506123db82612374565b604082019050919050565b600060208201905081810360008301526123ff816123c3565b9050919050565b7f4552433732313a206f776e657220717565727920666f72206e6f6e657869737460008201527f656e7420746f6b656e0000000000000000000000000000000000000000000000602082015250565b6000612462602983611c21565b915061246d82612406565b604082019050919050565b6000602082019050818103600083015261249181612455565b9050919050565b7f4552433732313a2062616c616e636520717565727920666f7220746865207a6560008201527f726f206164647265737300000000000000000000000000000000000000000000602082015250565b60006124f4602a83611c21565b91506124ff82612498565b604082019050919050565b60006020820190508181036000830152612523816124e7565b9050919050565b7f45524337323155524953746f726167653a2055524920717565727920666f722060008201527f6e6f6e6578697374656e7420746f6b656e000000000000000000000000000000602082015250565b6000612586603183611c21565b91506125918261252a565b604082019050919050565b600060208201905081810360008301526125b581612579565b9050919050565b600081905092915050565b60006125d282611c16565b6125dc81856125bc565b93506125ec818560208601611c32565b80840191505092915050565b600061260482856125c7565b915061261082846125c7565b91508190509392505050565b7f4d75737420626520455243373231000000000000000000000000000000000000600082015250565b6000612652600e83611c21565b915061265d8261261c565b602082019050919050565b6000602082019050818103600083015261268181612645565b9050919050565b600060608201905061269d6000830186611d66565b6126aa6020830185611d66565b6126b76040830184611e7c565b949350505050565b60006040820190506126d46000830185611d66565b6126e16020830184611e7c565b9392505050565b6000815190506126f781611ea6565b92915050565b60006020828403121561271357612712611b51565b5b6000612721848285016126e8565b91505092915050565b7f4e487b7100000000000000000000000000000000000000000000000000000000600052601160045260246000fd5b600061276482611cd1565b91507fffffffffffffffffffffffffffffffffffffffffffffffffffffffffffffffff8214156127975761279661272a565b5b600182019050919050565b7f4552433732313a206f70657261746f7220717565727920666f72206e6f6e657860008201527f697374656e7420746f6b656e0000000000000000000000000000000000000000602082015250565b60006127fe602c83611c21565b9150612809826127a2565b604082019050919050565b6000602082019050818103600083015261282d816127f1565b9050919050565b7f4552433732313a207472616e736665722066726f6d20696e636f72726563742060008201527f6f776e6572000000000000000000000000000000000000000000000000000000602082015250565b6000612890602583611c21565b915061289b82612834565b604082019050919050565b600060208201905081810360008301526128bf81612883565b9050919050565b7f4552433732313a207472616e7366657220746f20746865207a65726f2061646460008201527f7265737300000000000000000000000000000000000000000000000000000000602082015250565b6000612922602483611c21565b915061292d826128c6565b604082019050919050565b6000602082019050818103600083015261295181612915565b9050919050565b600061296382611cd1565b915061296e83611cd1565b9250828210156129815761298061272a565b5b828203905092915050565b600061299782611cd1565b91506129a283611cd1565b9250827fffffffffffffffffffffffffffffffffffffffffffffffffffffffffffffffff038211156129d7576129d661272a565b5b828201905092915050565b7f4552433732313a20617070726f766520746f2063616c6c657200000000000000600082015250565b6000612a18601983611c21565b9150612a23826129e2565b602082019050919050565b60006020820190508181036000830152612a4781612a0b565b9050919050565b7f4552433732313a207472616e7366657220746f206e6f6e20455243373231526560008201527f63656976657220696d706c656d656e7465720000000000000000000000000000602082015250565b6000612aaa603283611c21565b9150612ab582612a4e565b604082019050919050565b60006020820190508181036000830152612ad981612a9d565b9050919050565b7f4552433732314d657461646174613a2055524920717565727920666f72206e6f60008201527f6e6578697374656e7420746f6b656e0000000000000000000000000000000000602082015250565b6000612b3c602f83611c21565b9150612b4782612ae0565b604082019050919050565b60006020820190508181036000830152612b6b81612b2f565b9050919050565b7f45524337323155524953746f726167653a2055524920736574206f66206e6f6e60008201527f6578697374656e7420746f6b656e000000000000000000000000000000000000602082015250565b6000612bce602e83611c21565b9150612bd982612b72565b604082019050919050565b60006020820190508181036000830152612bfd81612bc1565b9050919050565b600081519050919050565b600082825260208201905092915050565b6000612c2b82612c04565b612c358185612c0f565b9350612c45818560208601611c32565b612c4e81611c65565b840191505092915050565b6000608082019050612c6e6000830187611d66565b612c7b6020830186611d66565b612c886040830185611e7c565b8181036060830152612c9a8184612c20565b905095945050505050565b600081519050612cb481611b87565b92915050565b600060208284031215612cd057612ccf611b51565b5b6000612cde84828501612ca5565b91505092915050565b7f4e487b7100000000000000000000000000000000000000000000000000000000600052601260045260246000fd5b6000612d2182611cd1565b9150612d2c83611cd1565b925082612d3c57612d3b612ce7565b5b828204905092915050565b6000612d5282611cd1565b9150612d5d83611cd1565b925082612d6d57612d6c612ce7565b5b828206905092915050565b7f4e487b7100000000000000000000000000000000000000000000000000000000600052603260045260246000fd5b7f4552433732313a206d696e7420746f20746865207a65726f2061646472657373600082015250565b6000612ddd602083611c21565b9150612de882612da7565b602082019050919050565b60006020820190508181036000830152612e0c81612dd0565b9050919050565b7f4552433732313a20746f6b656e20616c7265616479206d696e74656400000000600082015250565b6000612e49601c83611c21565b9150612e5482612e13565b602082019050919050565b60006020820190508181036000830152612e7881612e3c565b905091905056fe697066733a2f2f6261666b7265696178796c367436723534626933677a617a6d73666f6765656a6e356a616732626b746935706d32686269797a7769667779647869697066733a2f2f6261666b72656964777361706f6a73326473376f77646e356633326c78366c706834787666713761326432657633646d727678677674346c727179697066733a2f2f6261666b726569623579746577727668336f64367470356164717a6a6534647a3363647368357a7a7665736c7a32733377776c6f656f7034623265a2646970667358221220b9533ec8eb2faf8b31a770f2551690831669c574f08c30aeb36e3f6254161e0264736f6c634300080c0033",
  "immutableReferences": {},
  "source": "// SPDX-License-Identifier: MIT\r\n\r\npragma solidity ^0.8.0;\r\n\r\nimport \"@openzeppelin/contracts/token/ERC721/extensions/ERC721URIStorage.sol\";\r\nimport \"@openzeppelin/contracts/utils/introspection/ERC165.sol\";\r\nimport \"@openzeppelin/contracts/token/ERC20/IERC20.sol\";\r\n\r\n//import \"./KlimaERC20.sol\";\r\n\r\ncontract MemorialNFT is ERC721URIStorage {\r\n\r\n    uint nextTokenId = 1; // count of reminted tokens is also used as the token ID\r\n    address kt;\r\n\r\n    constructor(address _k) ERC721(\"Memorial NFT\", \"MN\"){\r\n        kt = _k;\r\n     //   KlimaToken(kt).SendKlima(address(this), 1000000000000);\r\n    }\r\n\r\n    function retrieveKT()public view returns(address){\r\n        return kt;\r\n    }\r\n\r\n    function remint(address _oldNFT, uint256 amountToSend, uint256 _id)  public {\r\n        //require(ERC721(_oldNFT).ownerOf(_id) == msg.sender,\"Not owner\");\r\n        //require(msg.value >= 1, \"Insufficient funds\");\r\n        require(supportsInterface(type(IERC721).interfaceId), \"Must be ERC721\");\r\n        string memory newTokenURI1 = \"ipfs://bafkreiaxyl6t6r54bi3gzazmsfogeejn5jag2bkti5pm2hbiyzwifwydxi\";\r\n        string memory newTokenURI2 = \"ipfs://bafkreib5ytewrvh3od6tp5adqzje4dz3cdsh5zzveslz2s3wwloeop4b2e\";\r\n        string memory newTokenURI3 = \"ipfs://bafkreidwsapojs2ds7owdn5f32lx6lph4xvfq7a2d2ev3dmrvxgvt4lrqy\";\r\n        \r\n        // Mint the NFT (needs to randomise)\r\n        _safeMint(msg.sender, nextTokenId, \"\");\r\n        if(nextTokenId == 2){\r\n        _setTokenURI(nextTokenId, newTokenURI2);\r\n        }\r\n        else if(nextTokenId == 3){\r\n        _setTokenURI(nextTokenId, newTokenURI3);\r\n        }\r\n        else {\r\n        _setTokenURI(nextTokenId, newTokenURI1);\r\n        }\r\n\r\n\r\n        // Transfer the NFT to us. Assume it has been 'allowed'\r\n        IERC721(_oldNFT).transferFrom(msg.sender, address(this), _id);\r\n\r\n        // Send KLIMA tokens to the msg.sender\r\n        IERC20(kt).transfer(msg.sender, amountToSend);\r\n\r\n        nextTokenId++;\r\n    }\r\n\r\n} ",
  "sourcePath": "C:/Users/Riki/Desktop/Solidity + React/Bonfire/Merge/contracts/MemorialNft.sol",
  "compiler": {
    "name": "solc",
    "version": "0.8.12+commit.f00d7308.Emscripten.clang"
  },
  "schemaVersion": "3.3.4",
  "updatedAt": "2022-03-15T20:36:14.234Z",
  "networkType": "ethereum",
  "devdoc": {
    "kind": "dev",
    "methods": {
      "approve(address,uint256)": {
        "details": "See {IERC721-approve}."
      },
      "balanceOf(address)": {
        "details": "See {IERC721-balanceOf}."
      },
      "getApproved(uint256)": {
        "details": "See {IERC721-getApproved}."
      },
      "isApprovedForAll(address,address)": {
        "details": "See {IERC721-isApprovedForAll}."
      },
      "name()": {
        "details": "See {IERC721Metadata-name}."
      },
      "ownerOf(uint256)": {
        "details": "See {IERC721-ownerOf}."
      },
      "safeTransferFrom(address,address,uint256)": {
        "details": "See {IERC721-safeTransferFrom}."
      },
      "safeTransferFrom(address,address,uint256,bytes)": {
        "details": "See {IERC721-safeTransferFrom}."
      },
      "setApprovalForAll(address,bool)": {
        "details": "See {IERC721-setApprovalForAll}."
      },
      "supportsInterface(bytes4)": {
        "details": "See {IERC165-supportsInterface}."
      },
      "symbol()": {
        "details": "See {IERC721Metadata-symbol}."
      },
      "tokenURI(uint256)": {
        "details": "See {IERC721Metadata-tokenURI}."
      },
      "transferFrom(address,address,uint256)": {
        "details": "See {IERC721-transferFrom}."
      }
    },
    "version": 1
  },
  "userdoc": {
    "kind": "user",
    "methods": {},
    "version": 1
  }
}