{
  "contractName": "MemorialNFT",
  "abi": [
    {
      "inputs": [
        {
          "internalType": "address",
          "name": "_k",
          "type": "address"
        }
      ],
      "stateMutability": "nonpayable",
      "type": "constructor"
    },
    {
      "anonymous": false,
      "inputs": [
        {
          "indexed": true,
          "internalType": "address",
          "name": "owner",
          "type": "address"
        },
        {
          "indexed": true,
          "internalType": "address",
          "name": "approved",
          "type": "address"
        },
        {
          "indexed": true,
          "internalType": "uint256",
          "name": "tokenId",
          "type": "uint256"
        }
      ],
      "name": "Approval",
      "type": "event"
    },
    {
      "anonymous": false,
      "inputs": [
        {
          "indexed": true,
          "internalType": "address",
          "name": "owner",
          "type": "address"
        },
        {
          "indexed": true,
          "internalType": "address",
          "name": "operator",
          "type": "address"
        },
        {
          "indexed": false,
          "internalType": "bool",
          "name": "approved",
          "type": "bool"
        }
      ],
      "name": "ApprovalForAll",
      "type": "event"
    },
    {
      "anonymous": false,
      "inputs": [
        {
          "indexed": true,
          "internalType": "address",
          "name": "from",
          "type": "address"
        },
        {
          "indexed": true,
          "internalType": "address",
          "name": "to",
          "type": "address"
        },
        {
          "indexed": true,
          "internalType": "uint256",
          "name": "tokenId",
          "type": "uint256"
        }
      ],
      "name": "Transfer",
      "type": "event"
    },
    {
      "inputs": [
        {
          "internalType": "address",
          "name": "",
          "type": "address"
        }
      ],
      "name": "_balances",
      "outputs": [
        {
          "internalType": "uint256",
          "name": "",
          "type": "uint256"
        }
      ],
      "stateMutability": "view",
      "type": "function",
      "constant": true
    },
    {
      "inputs": [
        {
          "internalType": "uint256",
          "name": "",
          "type": "uint256"
        }
      ],
      "name": "_owners",
      "outputs": [
        {
          "internalType": "address",
          "name": "",
          "type": "address"
        }
      ],
      "stateMutability": "view",
      "type": "function",
      "constant": true
    },
    {
      "inputs": [
        {
          "internalType": "address",
          "name": "to",
          "type": "address"
        },
        {
          "internalType": "uint256",
          "name": "tokenId",
          "type": "uint256"
        }
      ],
      "name": "approve",
      "outputs": [],
      "stateMutability": "nonpayable",
      "type": "function"
    },
    {
      "inputs": [
        {
          "internalType": "address",
          "name": "owner",
          "type": "address"
        }
      ],
      "name": "balanceOf",
      "outputs": [
        {
          "internalType": "uint256",
          "name": "",
          "type": "uint256"
        }
      ],
      "stateMutability": "view",
      "type": "function",
      "constant": true
    },
    {
      "inputs": [
        {
          "internalType": "uint256",
          "name": "tokenId",
          "type": "uint256"
        }
      ],
      "name": "getApproved",
      "outputs": [
        {
          "internalType": "address",
          "name": "",
          "type": "address"
        }
      ],
      "stateMutability": "view",
      "type": "function",
      "constant": true
    },
    {
      "inputs": [
        {
          "internalType": "address",
          "name": "owner",
          "type": "address"
        },
        {
          "internalType": "address",
          "name": "operator",
          "type": "address"
        }
      ],
      "name": "isApprovedForAll",
      "outputs": [
        {
          "internalType": "bool",
          "name": "",
          "type": "bool"
        }
      ],
      "stateMutability": "view",
      "type": "function",
      "constant": true
    },
    {
      "inputs": [],
      "name": "name",
      "outputs": [
        {
          "internalType": "string",
          "name": "",
          "type": "string"
        }
      ],
      "stateMutability": "view",
      "type": "function",
      "constant": true
    },
    {
      "inputs": [
        {
          "internalType": "uint256",
          "name": "tokenId",
          "type": "uint256"
        }
      ],
      "name": "ownerOf",
      "outputs": [
        {
          "internalType": "address",
          "name": "",
          "type": "address"
        }
      ],
      "stateMutability": "view",
      "type": "function",
      "constant": true
    },
    {
      "inputs": [
        {
          "internalType": "address",
          "name": "from",
          "type": "address"
        },
        {
          "internalType": "address",
          "name": "to",
          "type": "address"
        },
        {
          "internalType": "uint256",
          "name": "tokenId",
          "type": "uint256"
        }
      ],
      "name": "safeTransferFrom",
      "outputs": [],
      "stateMutability": "nonpayable",
      "type": "function"
    },
    {
      "inputs": [
        {
          "internalType": "address",
          "name": "from",
          "type": "address"
        },
        {
          "internalType": "address",
          "name": "to",
          "type": "address"
        },
        {
          "internalType": "uint256",
          "name": "tokenId",
          "type": "uint256"
        },
        {
          "internalType": "bytes",
          "name": "_data",
          "type": "bytes"
        }
      ],
      "name": "safeTransferFrom",
      "outputs": [],
      "stateMutability": "nonpayable",
      "type": "function"
    },
    {
      "inputs": [
        {
          "internalType": "address",
          "name": "operator",
          "type": "address"
        },
        {
          "internalType": "bool",
          "name": "approved",
          "type": "bool"
        }
      ],
      "name": "setApprovalForAll",
      "outputs": [],
      "stateMutability": "nonpayable",
      "type": "function"
    },
    {
      "inputs": [
        {
          "internalType": "bytes4",
          "name": "interfaceId",
          "type": "bytes4"
        }
      ],
      "name": "supportsInterface",
      "outputs": [
        {
          "internalType": "bool",
          "name": "",
          "type": "bool"
        }
      ],
      "stateMutability": "view",
      "type": "function",
      "constant": true
    },
    {
      "inputs": [],
      "name": "symbol",
      "outputs": [
        {
          "internalType": "string",
          "name": "",
          "type": "string"
        }
      ],
      "stateMutability": "view",
      "type": "function",
      "constant": true
    },
    {
      "inputs": [
        {
          "internalType": "uint256",
          "name": "tokenId",
          "type": "uint256"
        }
      ],
      "name": "tokenURI",
      "outputs": [
        {
          "internalType": "string",
          "name": "",
          "type": "string"
        }
      ],
      "stateMutability": "view",
      "type": "function",
      "constant": true
    },
    {
      "inputs": [
        {
          "internalType": "address",
          "name": "from",
          "type": "address"
        },
        {
          "internalType": "address",
          "name": "to",
          "type": "address"
        },
        {
          "internalType": "uint256",
          "name": "tokenId",
          "type": "uint256"
        }
      ],
      "name": "transferFrom",
      "outputs": [],
      "stateMutability": "nonpayable",
      "type": "function"
    },
    {
      "inputs": [
        {
          "internalType": "address",
          "name": "_oldNFT",
          "type": "address"
        },
        {
          "internalType": "uint256",
          "name": "_id",
          "type": "uint256"
        },
        {
          "internalType": "uint256",
          "name": "tokensToSend",
          "type": "uint256"
        }
      ],
      "name": "remint",
      "outputs": [
        {
          "internalType": "bool",
          "name": "",
          "type": "bool"
        }
      ],
      "stateMutability": "payable",
      "type": "function",
      "payable": true
    }
  ],
  "bytecode": "0x608060405260016006553480156200001657600080fd5b5060405162002f5938038062002f5983398181016040528101906200003c91906200023e565b6040518060400160405280600c81526020017f4d656d6f7269616c204e465400000000000000000000000000000000000000008152506040518060400160405280600281526020017f4d4e0000000000000000000000000000000000000000000000000000000000008152508160009080519060200190620000c092919062000124565b508060019080519060200190620000d992919062000124565b50505080600760006101000a81548173ffffffffffffffffffffffffffffffffffffffff021916908373ffffffffffffffffffffffffffffffffffffffff16021790555050620002d5565b82805462000132906200029f565b90600052602060002090601f016020900481019282620001565760008555620001a2565b82601f106200017157805160ff1916838001178555620001a2565b82800160010185558215620001a2579182015b82811115620001a157825182559160200191906001019062000184565b5b509050620001b19190620001b5565b5090565b5b80821115620001d0576000816000905550600101620001b6565b5090565b600080fd5b600073ffffffffffffffffffffffffffffffffffffffff82169050919050565b60006200020682620001d9565b9050919050565b6200021881620001f9565b81146200022457600080fd5b50565b60008151905062000238816200020d565b92915050565b600060208284031215620002575762000256620001d4565b5b6000620002678482850162000227565b91505092915050565b7f4e487b7100000000000000000000000000000000000000000000000000000000600052602260045260246000fd5b60006002820490506001821680620002b857607f821691505b60208210811415620002cf57620002ce62000270565b5b50919050565b612c7480620002e56000396000f3fe6080604052600436106100f35760003560e01c806370a082311161008a578063b88d4fde11610059578063b88d4fde14610360578063c87b56dd14610389578063dc384bfb146103c6578063e985e9c5146103f6576100f3565b806370a082311461029257806395d89b41146102cf578063992924a6146102fa578063a22cb46514610337576100f3565b806323b872dd116100c657806323b872dd146101c657806342842e0e146101ef5780636352211e146102185780636ebcf60714610255576100f3565b806301ffc9a7146100f857806306fdde0314610135578063081812fc14610160578063095ea7b31461019d575b600080fd5b34801561010457600080fd5b5061011f600480360381019061011a9190611a2a565b610433565b60405161012c9190611a72565b60405180910390f35b34801561014157600080fd5b5061014a610515565b6040516101579190611b26565b60405180910390f35b34801561016c57600080fd5b5061018760048036038101906101829190611b7e565b6105a7565b6040516101949190611bec565b60405180910390f35b3480156101a957600080fd5b506101c460048036038101906101bf9190611c33565b61062c565b005b3480156101d257600080fd5b506101ed60048036038101906101e89190611c73565b610744565b005b3480156101fb57600080fd5b5061021660048036038101906102119190611c73565b6107a4565b005b34801561022457600080fd5b5061023f600480360381019061023a9190611b7e565b6107c4565b60405161024c9190611bec565b60405180910390f35b34801561026157600080fd5b5061027c60048036038101906102779190611cc6565b610876565b6040516102899190611d02565b60405180910390f35b34801561029e57600080fd5b506102b960048036038101906102b49190611cc6565b61088e565b6040516102c69190611d02565b60405180910390f35b3480156102db57600080fd5b506102e4610946565b6040516102f19190611b26565b60405180910390f35b34801561030657600080fd5b50610321600480360381019061031c9190611b7e565b6109d8565b60405161032e9190611bec565b60405180910390f35b34801561034357600080fd5b5061035e60048036038101906103599190611d49565b610a0b565b005b34801561036c57600080fd5b5061038760048036038101906103829190611ebe565b610a21565b005b34801561039557600080fd5b506103b060048036038101906103ab9190611b7e565b610a83565b6040516103bd9190611b26565b60405180910390f35b6103e060048036038101906103db9190611f41565b610b2a565b6040516103ed9190611a72565b60405180910390f35b34801561040257600080fd5b5061041d60048036038101906104189190611f94565b610d23565b60405161042a9190611a72565b60405180910390f35b60007f80ac58cd000000000000000000000000000000000000000000000000000000007bffffffffffffffffffffffffffffffffffffffffffffffffffffffff1916827bffffffffffffffffffffffffffffffffffffffffffffffffffffffff191614806104fe57507f5b5e139f000000000000000000000000000000000000000000000000000000007bffffffffffffffffffffffffffffffffffffffffffffffffffffffff1916827bffffffffffffffffffffffffffffffffffffffffffffffffffffffff1916145b8061050e575061050d82610db7565b5b9050919050565b60606000805461052490612003565b80601f016020809104026020016040519081016040528092919081815260200182805461055090612003565b801561059d5780601f106105725761010080835404028352916020019161059d565b820191906000526020600020905b81548152906001019060200180831161058057829003601f168201915b5050505050905090565b60006105b282610e21565b6105f1576040517f08c379a00000000000000000000000000000000000000000000000000000000081526004016105e8906120a7565b60405180910390fd5b6004600083815260200190815260200160002060009054906101000a900473ffffffffffffffffffffffffffffffffffffffff169050919050565b6000610637826107c4565b90508073ffffffffffffffffffffffffffffffffffffffff168373ffffffffffffffffffffffffffffffffffffffff1614156106a8576040517f08c379a000000000000000000000000000000000000000000000000000000000815260040161069f90612139565b60405180910390fd5b8073ffffffffffffffffffffffffffffffffffffffff166106c7610e8d565b73ffffffffffffffffffffffffffffffffffffffff1614806106f657506106f5816106f0610e8d565b610d23565b5b610735576040517f08c379a000000000000000000000000000000000000000000000000000000000815260040161072c906121cb565b60405180910390fd5b61073f8383610e95565b505050565b61075561074f610e8d565b82610f4e565b610794576040517f08c379a000000000000000000000000000000000000000000000000000000000815260040161078b9061225d565b60405180910390fd5b61079f83838361102c565b505050565b6107bf83838360405180602001604052806000815250610a21565b505050565b6000806002600084815260200190815260200160002060009054906101000a900473ffffffffffffffffffffffffffffffffffffffff169050600073ffffffffffffffffffffffffffffffffffffffff168173ffffffffffffffffffffffffffffffffffffffff16141561086d576040517f08c379a0000000000000000000000000000000000000000000000000000000008152600401610864906122ef565b60405180910390fd5b80915050919050565b60036020528060005260406000206000915090505481565b60008073ffffffffffffffffffffffffffffffffffffffff168273ffffffffffffffffffffffffffffffffffffffff1614156108ff576040517f08c379a00000000000000000000000000000000000000000000000000000000081526004016108f690612381565b60405180910390fd5b600360008373ffffffffffffffffffffffffffffffffffffffff1673ffffffffffffffffffffffffffffffffffffffff168152602001908152602001600020549050919050565b60606001805461095590612003565b80601f016020809104026020016040519081016040528092919081815260200182805461098190612003565b80156109ce5780601f106109a3576101008083540402835291602001916109ce565b820191906000526020600020905b8154815290600101906020018083116109b157829003601f168201915b5050505050905090565b60026020528060005260406000206000915054906101000a900473ffffffffffffffffffffffffffffffffffffffff1681565b610a1d610a16610e8d565b8383611293565b5050565b610a32610a2c610e8d565b83610f4e565b610a71576040517f08c379a0000000000000000000000000000000000000000000000000000000008152600401610a689061225d565b60405180910390fd5b610a7d84848484611400565b50505050565b6060610a8e82610e21565b610acd576040517f08c379a0000000000000000000000000000000000000000000000000000000008152600401610ac490612413565b60405180910390fd5b6000610ad761145c565b90506000815111610af75760405180602001604052806000815250610b22565b80610b0184611473565b604051602001610b1292919061246f565b6040516020818303038152906040525b915050919050565b60006001341015610b70576040517f08c379a0000000000000000000000000000000000000000000000000000000008152600401610b67906124df565b60405180910390fd5b610b997f80ac58cd00000000000000000000000000000000000000000000000000000000610433565b610bd8576040517f08c379a0000000000000000000000000000000000000000000000000000000008152600401610bcf9061254b565b60405180910390fd5b610c083360066000815480929190610bef9061259a565b91905055604051806020016040528060008152506115d4565b8373ffffffffffffffffffffffffffffffffffffffff166323b872dd3330866040518463ffffffff1660e01b8152600401610c45939291906125e3565b600060405180830381600087803b158015610c5f57600080fd5b505af1158015610c73573d6000803e3d6000fd5b50505050600760009054906101000a900473ffffffffffffffffffffffffffffffffffffffff1673ffffffffffffffffffffffffffffffffffffffff1663a9059cbb33846040518363ffffffff1660e01b8152600401610cd492919061261a565b6020604051808303816000875af1158015610cf3573d6000803e3d6000fd5b505050506040513d601f19601f82011682018060405250810190610d179190612658565b50600190509392505050565b6000600560008473ffffffffffffffffffffffffffffffffffffffff1673ffffffffffffffffffffffffffffffffffffffff16815260200190815260200160002060008373ffffffffffffffffffffffffffffffffffffffff1673ffffffffffffffffffffffffffffffffffffffff16815260200190815260200160002060009054906101000a900460ff16905092915050565b60007f01ffc9a7000000000000000000000000000000000000000000000000000000007bffffffffffffffffffffffffffffffffffffffffffffffffffffffff1916827bffffffffffffffffffffffffffffffffffffffffffffffffffffffff1916149050919050565b60008073ffffffffffffffffffffffffffffffffffffffff166002600084815260200190815260200160002060009054906101000a900473ffffffffffffffffffffffffffffffffffffffff1673ffffffffffffffffffffffffffffffffffffffff1614159050919050565b600033905090565b816004600083815260200190815260200160002060006101000a81548173ffffffffffffffffffffffffffffffffffffffff021916908373ffffffffffffffffffffffffffffffffffffffff160217905550808273ffffffffffffffffffffffffffffffffffffffff16610f08836107c4565b73ffffffffffffffffffffffffffffffffffffffff167f8c5be1e5ebec7d5bd14f71427d1e84f3dd0314c0f7b2291e5b200ac8c7c3b92560405160405180910390a45050565b6000610f5982610e21565b610f98576040517f08c379a0000000000000000000000000000000000000000000000000000000008152600401610f8f906126f7565b60405180910390fd5b6000610fa3836107c4565b90508073ffffffffffffffffffffffffffffffffffffffff168473ffffffffffffffffffffffffffffffffffffffff16148061101257508373ffffffffffffffffffffffffffffffffffffffff16610ffa846105a7565b73ffffffffffffffffffffffffffffffffffffffff16145b8061102357506110228185610d23565b5b91505092915050565b8273ffffffffffffffffffffffffffffffffffffffff1661104c826107c4565b73ffffffffffffffffffffffffffffffffffffffff16146110a2576040517f08c379a000000000000000000000000000000000000000000000000000000000815260040161109990612789565b60405180910390fd5b600073ffffffffffffffffffffffffffffffffffffffff168273ffffffffffffffffffffffffffffffffffffffff161415611112576040517f08c379a00000000000000000000000000000000000000000000000000000000081526004016111099061281b565b60405180910390fd5b61111d83838361162f565b611128600082610e95565b6001600360008573ffffffffffffffffffffffffffffffffffffffff1673ffffffffffffffffffffffffffffffffffffffff1681526020019081526020016000206000828254611178919061283b565b925050819055506001600360008473ffffffffffffffffffffffffffffffffffffffff1673ffffffffffffffffffffffffffffffffffffffff16815260200190815260200160002060008282546111cf919061286f565b92505081905550816002600083815260200190815260200160002060006101000a81548173ffffffffffffffffffffffffffffffffffffffff021916908373ffffffffffffffffffffffffffffffffffffffff160217905550808273ffffffffffffffffffffffffffffffffffffffff168473ffffffffffffffffffffffffffffffffffffffff167fddf252ad1be2c89b69c2b068fc378daa952ba7f163c4a11628f55a4df523b3ef60405160405180910390a461128e838383611634565b505050565b8173ffffffffffffffffffffffffffffffffffffffff168373ffffffffffffffffffffffffffffffffffffffff161415611302576040517f08c379a00000000000000000000000000000000000000000000000000000000081526004016112f990612911565b60405180910390fd5b80600560008573ffffffffffffffffffffffffffffffffffffffff1673ffffffffffffffffffffffffffffffffffffffff16815260200190815260200160002060008473ffffffffffffffffffffffffffffffffffffffff1673ffffffffffffffffffffffffffffffffffffffff16815260200190815260200160002060006101000a81548160ff0219169083151502179055508173ffffffffffffffffffffffffffffffffffffffff168373ffffffffffffffffffffffffffffffffffffffff167f17307eab39ab6107e8899845ad3d59bd9653f200f220920489ca2b5937696c31836040516113f39190611a72565b60405180910390a3505050565b61140b84848461102c565b61141784848484611639565b611456576040517f08c379a000000000000000000000000000000000000000000000000000000000815260040161144d906129a3565b60405180910390fd5b50505050565b606060405180602001604052806000815250905090565b606060008214156114bb576040518060400160405280600181526020017f300000000000000000000000000000000000000000000000000000000000000081525090506115cf565b600082905060005b600082146114ed5780806114d69061259a565b915050600a826114e691906129f2565b91506114c3565b60008167ffffffffffffffff81111561150957611508611d93565b5b6040519080825280601f01601f19166020018201604052801561153b5781602001600182028036833780820191505090505b5090505b600085146115c857600182611554919061283b565b9150600a856115639190612a23565b603061156f919061286f565b60f81b81838151811061158557611584612a54565b5b60200101907effffffffffffffffffffffffffffffffffffffffffffffffffffffffffffff1916908160001a905350600a856115c191906129f2565b945061153f565b8093505050505b919050565b6115de83836117c1565b6115eb6000848484611639565b61162a576040517f08c379a0000000000000000000000000000000000000000000000000000000008152600401611621906129a3565b60405180910390fd5b505050565b505050565b505050565b600061165a8473ffffffffffffffffffffffffffffffffffffffff1661199b565b156117b4578373ffffffffffffffffffffffffffffffffffffffff1663150b7a02611683610e8d565b8786866040518563ffffffff1660e01b81526004016116a59493929190612ad8565b6020604051808303816000875af19250505080156116e157506040513d601f19601f820116820180604052508101906116de9190612b39565b60015b611764573d8060008114611711576040519150601f19603f3d011682016040523d82523d6000602084013e611716565b606091505b5060008151141561175c576040517f08c379a0000000000000000000000000000000000000000000000000000000008152600401611753906129a3565b60405180910390fd5b805181602001fd5b63150b7a0260e01b7bffffffffffffffffffffffffffffffffffffffffffffffffffffffff1916817bffffffffffffffffffffffffffffffffffffffffffffffffffffffff1916149150506117b9565b600190505b949350505050565b600073ffffffffffffffffffffffffffffffffffffffff168273ffffffffffffffffffffffffffffffffffffffff161415611831576040517f08c379a000000000000000000000000000000000000000000000000000000000815260040161182890612bb2565b60405180910390fd5b61183a81610e21565b1561187a576040517f08c379a000000000000000000000000000000000000000000000000000000000815260040161187190612c1e565b60405180910390fd5b6118866000838361162f565b6001600360008473ffffffffffffffffffffffffffffffffffffffff1673ffffffffffffffffffffffffffffffffffffffff16815260200190815260200160002060008282546118d6919061286f565b92505081905550816002600083815260200190815260200160002060006101000a81548173ffffffffffffffffffffffffffffffffffffffff021916908373ffffffffffffffffffffffffffffffffffffffff160217905550808273ffffffffffffffffffffffffffffffffffffffff16600073ffffffffffffffffffffffffffffffffffffffff167fddf252ad1be2c89b69c2b068fc378daa952ba7f163c4a11628f55a4df523b3ef60405160405180910390a461199760008383611634565b5050565b6000808273ffffffffffffffffffffffffffffffffffffffff163b119050919050565b6000604051905090565b600080fd5b600080fd5b60007fffffffff0000000000000000000000000000000000000000000000000000000082169050919050565b611a07816119d2565b8114611a1257600080fd5b50565b600081359050611a24816119fe565b92915050565b600060208284031215611a4057611a3f6119c8565b5b6000611a4e84828501611a15565b91505092915050565b60008115159050919050565b611a6c81611a57565b82525050565b6000602082019050611a876000830184611a63565b92915050565b600081519050919050565b600082825260208201905092915050565b60005b83811015611ac7578082015181840152602081019050611aac565b83811115611ad6576000848401525b50505050565b6000601f19601f8301169050919050565b6000611af882611a8d565b611b028185611a98565b9350611b12818560208601611aa9565b611b1b81611adc565b840191505092915050565b60006020820190508181036000830152611b408184611aed565b905092915050565b6000819050919050565b611b5b81611b48565b8114611b6657600080fd5b50565b600081359050611b7881611b52565b92915050565b600060208284031215611b9457611b936119c8565b5b6000611ba284828501611b69565b91505092915050565b600073ffffffffffffffffffffffffffffffffffffffff82169050919050565b6000611bd682611bab565b9050919050565b611be681611bcb565b82525050565b6000602082019050611c016000830184611bdd565b92915050565b611c1081611bcb565b8114611c1b57600080fd5b50565b600081359050611c2d81611c07565b92915050565b60008060408385031215611c4a57611c496119c8565b5b6000611c5885828601611c1e565b9250506020611c6985828601611b69565b9150509250929050565b600080600060608486031215611c8c57611c8b6119c8565b5b6000611c9a86828701611c1e565b9350506020611cab86828701611c1e565b9250506040611cbc86828701611b69565b9150509250925092565b600060208284031215611cdc57611cdb6119c8565b5b6000611cea84828501611c1e565b91505092915050565b611cfc81611b48565b82525050565b6000602082019050611d176000830184611cf3565b92915050565b611d2681611a57565b8114611d3157600080fd5b50565b600081359050611d4381611d1d565b92915050565b60008060408385031215611d6057611d5f6119c8565b5b6000611d6e85828601611c1e565b9250506020611d7f85828601611d34565b9150509250929050565b600080fd5b600080fd5b7f4e487b7100000000000000000000000000000000000000000000000000000000600052604160045260246000fd5b611dcb82611adc565b810181811067ffffffffffffffff82111715611dea57611de9611d93565b5b80604052505050565b6000611dfd6119be565b9050611e098282611dc2565b919050565b600067ffffffffffffffff821115611e2957611e28611d93565b5b611e3282611adc565b9050602081019050919050565b82818337600083830152505050565b6000611e61611e5c84611e0e565b611df3565b905082815260208101848484011115611e7d57611e7c611d8e565b5b611e88848285611e3f565b509392505050565b600082601f830112611ea557611ea4611d89565b5b8135611eb5848260208601611e4e565b91505092915050565b60008060008060808587031215611ed857611ed76119c8565b5b6000611ee687828801611c1e565b9450506020611ef787828801611c1e565b9350506040611f0887828801611b69565b925050606085013567ffffffffffffffff811115611f2957611f286119cd565b5b611f3587828801611e90565b91505092959194509250565b600080600060608486031215611f5a57611f596119c8565b5b6000611f6886828701611c1e565b9350506020611f7986828701611b69565b9250506040611f8a86828701611b69565b9150509250925092565b60008060408385031215611fab57611faa6119c8565b5b6000611fb985828601611c1e565b9250506020611fca85828601611c1e565b9150509250929050565b7f4e487b7100000000000000000000000000000000000000000000000000000000600052602260045260246000fd5b6000600282049050600182168061201b57607f821691505b6020821081141561202f5761202e611fd4565b5b50919050565b7f4552433732313a20617070726f76656420717565727920666f72206e6f6e657860008201527f697374656e7420746f6b656e0000000000000000000000000000000000000000602082015250565b6000612091602c83611a98565b915061209c82612035565b604082019050919050565b600060208201905081810360008301526120c081612084565b9050919050565b7f4552433732313a20617070726f76616c20746f2063757272656e74206f776e6560008201527f7200000000000000000000000000000000000000000000000000000000000000602082015250565b6000612123602183611a98565b915061212e826120c7565b604082019050919050565b6000602082019050818103600083015261215281612116565b9050919050565b7f4552433732313a20617070726f76652063616c6c6572206973206e6f74206f7760008201527f6e6572206e6f7220617070726f76656420666f7220616c6c0000000000000000602082015250565b60006121b5603883611a98565b91506121c082612159565b604082019050919050565b600060208201905081810360008301526121e4816121a8565b9050919050565b7f4552433732313a207472616e736665722063616c6c6572206973206e6f74206f60008201527f776e6572206e6f7220617070726f766564000000000000000000000000000000602082015250565b6000612247603183611a98565b9150612252826121eb565b604082019050919050565b600060208201905081810360008301526122768161223a565b9050919050565b7f4552433732313a206f776e657220717565727920666f72206e6f6e657869737460008201527f656e7420746f6b656e0000000000000000000000000000000000000000000000602082015250565b60006122d9602983611a98565b91506122e48261227d565b604082019050919050565b60006020820190508181036000830152612308816122cc565b9050919050565b7f4552433732313a2062616c616e636520717565727920666f7220746865207a6560008201527f726f206164647265737300000000000000000000000000000000000000000000602082015250565b600061236b602a83611a98565b91506123768261230f565b604082019050919050565b6000602082019050818103600083015261239a8161235e565b9050919050565b7f4552433732314d657461646174613a2055524920717565727920666f72206e6f60008201527f6e6578697374656e7420746f6b656e0000000000000000000000000000000000602082015250565b60006123fd602f83611a98565b9150612408826123a1565b604082019050919050565b6000602082019050818103600083015261242c816123f0565b9050919050565b600081905092915050565b600061244982611a8d565b6124538185612433565b9350612463818560208601611aa9565b80840191505092915050565b600061247b828561243e565b9150612487828461243e565b91508190509392505050565b7f496e73756666696369656e742066756e64730000000000000000000000000000600082015250565b60006124c9601283611a98565b91506124d482612493565b602082019050919050565b600060208201905081810360008301526124f8816124bc565b9050919050565b7f4d75737420626520455243373231000000000000000000000000000000000000600082015250565b6000612535600e83611a98565b9150612540826124ff565b602082019050919050565b6000602082019050818103600083015261256481612528565b9050919050565b7f4e487b7100000000000000000000000000000000000000000000000000000000600052601160045260246000fd5b60006125a582611b48565b91507fffffffffffffffffffffffffffffffffffffffffffffffffffffffffffffffff8214156125d8576125d761256b565b5b600182019050919050565b60006060820190506125f86000830186611bdd565b6126056020830185611bdd565b6126126040830184611cf3565b949350505050565b600060408201905061262f6000830185611bdd565b61263c6020830184611cf3565b9392505050565b60008151905061265281611d1d565b92915050565b60006020828403121561266e5761266d6119c8565b5b600061267c84828501612643565b91505092915050565b7f4552433732313a206f70657261746f7220717565727920666f72206e6f6e657860008201527f697374656e7420746f6b656e0000000000000000000000000000000000000000602082015250565b60006126e1602c83611a98565b91506126ec82612685565b604082019050919050565b60006020820190508181036000830152612710816126d4565b9050919050565b7f4552433732313a207472616e736665722066726f6d20696e636f72726563742060008201527f6f776e6572000000000000000000000000000000000000000000000000000000602082015250565b6000612773602583611a98565b915061277e82612717565b604082019050919050565b600060208201905081810360008301526127a281612766565b9050919050565b7f4552433732313a207472616e7366657220746f20746865207a65726f2061646460008201527f7265737300000000000000000000000000000000000000000000000000000000602082015250565b6000612805602483611a98565b9150612810826127a9565b604082019050919050565b60006020820190508181036000830152612834816127f8565b9050919050565b600061284682611b48565b915061285183611b48565b9250828210156128645761286361256b565b5b828203905092915050565b600061287a82611b48565b915061288583611b48565b9250827fffffffffffffffffffffffffffffffffffffffffffffffffffffffffffffffff038211156128ba576128b961256b565b5b828201905092915050565b7f4552433732313a20617070726f766520746f2063616c6c657200000000000000600082015250565b60006128fb601983611a98565b9150612906826128c5565b602082019050919050565b6000602082019050818103600083015261292a816128ee565b9050919050565b7f4552433732313a207472616e7366657220746f206e6f6e20455243373231526560008201527f63656976657220696d706c656d656e7465720000000000000000000000000000602082015250565b600061298d603283611a98565b915061299882612931565b604082019050919050565b600060208201905081810360008301526129bc81612980565b9050919050565b7f4e487b7100000000000000000000000000000000000000000000000000000000600052601260045260246000fd5b60006129fd82611b48565b9150612a0883611b48565b925082612a1857612a176129c3565b5b828204905092915050565b6000612a2e82611b48565b9150612a3983611b48565b925082612a4957612a486129c3565b5b828206905092915050565b7f4e487b7100000000000000000000000000000000000000000000000000000000600052603260045260246000fd5b600081519050919050565b600082825260208201905092915050565b6000612aaa82612a83565b612ab48185612a8e565b9350612ac4818560208601611aa9565b612acd81611adc565b840191505092915050565b6000608082019050612aed6000830187611bdd565b612afa6020830186611bdd565b612b076040830185611cf3565b8181036060830152612b198184612a9f565b905095945050505050565b600081519050612b33816119fe565b92915050565b600060208284031215612b4f57612b4e6119c8565b5b6000612b5d84828501612b24565b91505092915050565b7f4552433732313a206d696e7420746f20746865207a65726f2061646472657373600082015250565b6000612b9c602083611a98565b9150612ba782612b66565b602082019050919050565b60006020820190508181036000830152612bcb81612b8f565b9050919050565b7f4552433732313a20746f6b656e20616c7265616479206d696e74656400000000600082015250565b6000612c08601c83611a98565b9150612c1382612bd2565b602082019050919050565b60006020820190508181036000830152612c3781612bfb565b905091905056fea26469706673582212207c2e13c6e92d3adda661c93de3076d91538aeac84ea361a97f8dff954a8fb01b64736f6c634300080c0033",
  "immutableReferences": {},
  "source": "// SPDX-License-Identifier: MIT\r\n\r\npragma solidity ^0.8.0;\r\n\r\nimport \"@openzeppelin/contracts/token/ERC721/ERC721.sol\";\r\nimport \"@openzeppelin/contracts/utils/introspection/ERC165.sol\";\r\nimport \"@openzeppelin/contracts/token/ERC20/IERC20.sol\";\r\n\r\n//import \"./KlimaERC20.sol\";\r\n\r\ncontract MemorialNFT is ERC721 {\r\n\r\n    uint nextTokenId = 1; // count of reminted tokens is also used as the token ID\r\n    address kt;\r\n\r\n    constructor(address _k) ERC721(\"Memorial NFT\", \"MN\"){\r\n\r\n        // Create KLIMA ERC20 tokens by call ing the constructor\r\n        kt = _k;\r\n    } \r\n\r\n/*\r\n*   remint() takes an existing ERC721 and a Donation.\r\n*   The function then:\r\n*      - mints a new NFT\r\n*      - transfers it back tio the message sender\r\n*      - transfers the existing NFT to 'this'.\r\n*      - sends an amount of KLIMA to the msg.sender based on msg.value (1:1)\r\n* \r\n*   Assumption: The sender must approve this contract to transfer the old token.\r\n*      function approve(address to, uint256 tokenId) public virtual override\r\n*/\r\n    function remint(address _oldNFT, uint256 _id, uint256 tokensToSend) payable public returns (bool)  {\r\n        //require(ERC721(_oldNFT).ownerOf(_id) == msg.sender,\"Not owner\");\r\n        require(msg.value >= 1, \"Insufficient funds\");\r\n        require(supportsInterface( type(IERC721).interfaceId), \"Must be ERC721\");\r\n\r\n        // Mint the NFT (needs to randomise)\r\n        _safeMint(msg.sender, nextTokenId++, \"\");\r\n\r\n        // Transfer the NFT to us. Assume it has been 'allowed'\r\n        ERC721(_oldNFT).transferFrom(msg.sender, address(this), _id);\r\n\r\n        // Send KLIMA tokens to the msg.sender\r\n        IERC20(kt).transfer(msg.sender, tokensToSend);\r\n\r\n        return (true);\r\n    }\r\n\r\n}",
  "sourcePath": "C:/Users/Riki/Desktop/Solidity/Nft Bonfire/contracts/MemorialNft.sol",
  "compiler": {
    "name": "solc",
    "version": "0.8.12+commit.f00d7308.Emscripten.clang"
  },
  "schemaVersion": "3.3.4",
  "updatedAt": "2022-03-11T10:29:21.228Z",
  "networkType": "ethereum",
  "devdoc": {
    "kind": "dev",
    "methods": {
      "approve(address,uint256)": {
        "details": "See {IERC721-approve}."
      },
      "balanceOf(address)": {
        "details": "See {IERC721-balanceOf}."
      },
      "getApproved(uint256)": {
        "details": "See {IERC721-getApproved}."
      },
      "isApprovedForAll(address,address)": {
        "details": "See {IERC721-isApprovedForAll}."
      },
      "name()": {
        "details": "See {IERC721Metadata-name}."
      },
      "ownerOf(uint256)": {
        "details": "See {IERC721-ownerOf}."
      },
      "safeTransferFrom(address,address,uint256)": {
        "details": "See {IERC721-safeTransferFrom}."
      },
      "safeTransferFrom(address,address,uint256,bytes)": {
        "details": "See {IERC721-safeTransferFrom}."
      },
      "setApprovalForAll(address,bool)": {
        "details": "See {IERC721-setApprovalForAll}."
      },
      "supportsInterface(bytes4)": {
        "details": "See {IERC165-supportsInterface}."
      },
      "symbol()": {
        "details": "See {IERC721Metadata-symbol}."
      },
      "tokenURI(uint256)": {
        "details": "See {IERC721Metadata-tokenURI}."
      },
      "transferFrom(address,address,uint256)": {
        "details": "See {IERC721-transferFrom}."
      }
    },
    "version": 1
  },
  "userdoc": {
    "kind": "user",
    "methods": {},
    "version": 1
  }
}