{
  "contractName": "MemorialNFT",
  "abi": [
    {
      "inputs": [
        {
          "internalType": "address",
          "name": "_k",
          "type": "address"
        }
      ],
      "stateMutability": "nonpayable",
      "type": "constructor"
    },
    {
      "anonymous": false,
      "inputs": [
        {
          "indexed": true,
          "internalType": "address",
          "name": "owner",
          "type": "address"
        },
        {
          "indexed": true,
          "internalType": "address",
          "name": "approved",
          "type": "address"
        },
        {
          "indexed": true,
          "internalType": "uint256",
          "name": "tokenId",
          "type": "uint256"
        }
      ],
      "name": "Approval",
      "type": "event"
    },
    {
      "anonymous": false,
      "inputs": [
        {
          "indexed": true,
          "internalType": "address",
          "name": "owner",
          "type": "address"
        },
        {
          "indexed": true,
          "internalType": "address",
          "name": "operator",
          "type": "address"
        },
        {
          "indexed": false,
          "internalType": "bool",
          "name": "approved",
          "type": "bool"
        }
      ],
      "name": "ApprovalForAll",
      "type": "event"
    },
    {
      "anonymous": false,
      "inputs": [
        {
          "indexed": true,
          "internalType": "address",
          "name": "from",
          "type": "address"
        },
        {
          "indexed": true,
          "internalType": "address",
          "name": "to",
          "type": "address"
        },
        {
          "indexed": true,
          "internalType": "uint256",
          "name": "tokenId",
          "type": "uint256"
        }
      ],
      "name": "Transfer",
      "type": "event"
    },
    {
      "inputs": [
        {
          "internalType": "address",
          "name": "to",
          "type": "address"
        },
        {
          "internalType": "uint256",
          "name": "tokenId",
          "type": "uint256"
        }
      ],
      "name": "approve",
      "outputs": [],
      "stateMutability": "nonpayable",
      "type": "function"
    },
    {
      "inputs": [
        {
          "internalType": "address",
          "name": "owner",
          "type": "address"
        }
      ],
      "name": "balanceOf",
      "outputs": [
        {
          "internalType": "uint256",
          "name": "",
          "type": "uint256"
        }
      ],
      "stateMutability": "view",
      "type": "function",
      "constant": true
    },
    {
      "inputs": [
        {
          "internalType": "uint256",
          "name": "tokenId",
          "type": "uint256"
        }
      ],
      "name": "getApproved",
      "outputs": [
        {
          "internalType": "address",
          "name": "",
          "type": "address"
        }
      ],
      "stateMutability": "view",
      "type": "function",
      "constant": true
    },
    {
      "inputs": [
        {
          "internalType": "address",
          "name": "owner",
          "type": "address"
        },
        {
          "internalType": "address",
          "name": "operator",
          "type": "address"
        }
      ],
      "name": "isApprovedForAll",
      "outputs": [
        {
          "internalType": "bool",
          "name": "",
          "type": "bool"
        }
      ],
      "stateMutability": "view",
      "type": "function",
      "constant": true
    },
    {
      "inputs": [],
      "name": "kt",
      "outputs": [
        {
          "internalType": "address",
          "name": "",
          "type": "address"
        }
      ],
      "stateMutability": "view",
      "type": "function",
      "constant": true
    },
    {
      "inputs": [],
      "name": "name",
      "outputs": [
        {
          "internalType": "string",
          "name": "",
          "type": "string"
        }
      ],
      "stateMutability": "view",
      "type": "function",
      "constant": true
    },
    {
      "inputs": [
        {
          "internalType": "uint256",
          "name": "tokenId",
          "type": "uint256"
        }
      ],
      "name": "ownerOf",
      "outputs": [
        {
          "internalType": "address",
          "name": "",
          "type": "address"
        }
      ],
      "stateMutability": "view",
      "type": "function",
      "constant": true
    },
    {
      "inputs": [
        {
          "internalType": "address",
          "name": "from",
          "type": "address"
        },
        {
          "internalType": "address",
          "name": "to",
          "type": "address"
        },
        {
          "internalType": "uint256",
          "name": "tokenId",
          "type": "uint256"
        }
      ],
      "name": "safeTransferFrom",
      "outputs": [],
      "stateMutability": "nonpayable",
      "type": "function"
    },
    {
      "inputs": [
        {
          "internalType": "address",
          "name": "from",
          "type": "address"
        },
        {
          "internalType": "address",
          "name": "to",
          "type": "address"
        },
        {
          "internalType": "uint256",
          "name": "tokenId",
          "type": "uint256"
        },
        {
          "internalType": "bytes",
          "name": "_data",
          "type": "bytes"
        }
      ],
      "name": "safeTransferFrom",
      "outputs": [],
      "stateMutability": "nonpayable",
      "type": "function"
    },
    {
      "inputs": [
        {
          "internalType": "address",
          "name": "operator",
          "type": "address"
        },
        {
          "internalType": "bool",
          "name": "approved",
          "type": "bool"
        }
      ],
      "name": "setApprovalForAll",
      "outputs": [],
      "stateMutability": "nonpayable",
      "type": "function"
    },
    {
      "inputs": [
        {
          "internalType": "bytes4",
          "name": "interfaceId",
          "type": "bytes4"
        }
      ],
      "name": "supportsInterface",
      "outputs": [
        {
          "internalType": "bool",
          "name": "",
          "type": "bool"
        }
      ],
      "stateMutability": "view",
      "type": "function",
      "constant": true
    },
    {
      "inputs": [],
      "name": "symbol",
      "outputs": [
        {
          "internalType": "string",
          "name": "",
          "type": "string"
        }
      ],
      "stateMutability": "view",
      "type": "function",
      "constant": true
    },
    {
      "inputs": [
        {
          "internalType": "uint256",
          "name": "tokenId",
          "type": "uint256"
        }
      ],
      "name": "tokenURI",
      "outputs": [
        {
          "internalType": "string",
          "name": "",
          "type": "string"
        }
      ],
      "stateMutability": "view",
      "type": "function",
      "constant": true
    },
    {
      "inputs": [
        {
          "internalType": "address",
          "name": "from",
          "type": "address"
        },
        {
          "internalType": "address",
          "name": "to",
          "type": "address"
        },
        {
          "internalType": "uint256",
          "name": "tokenId",
          "type": "uint256"
        }
      ],
      "name": "transferFrom",
      "outputs": [],
      "stateMutability": "nonpayable",
      "type": "function"
    },
    {
      "inputs": [
        {
          "internalType": "address",
          "name": "_oldNFT",
          "type": "address"
        },
        {
          "internalType": "uint256",
          "name": "_id",
          "type": "uint256"
        },
        {
          "internalType": "uint256",
          "name": "tokensToSend",
          "type": "uint256"
        }
      ],
      "name": "remint",
      "outputs": [
        {
          "internalType": "bool",
          "name": "",
          "type": "bool"
        }
      ],
      "stateMutability": "nonpayable",
      "type": "function"
    }
  ],
  "bytecode": "0x608060405260016006553480156200001657600080fd5b5060405162002d8138038062002d8183398181016040528101906200003c91906200023e565b6040518060400160405280600c81526020017f4d656d6f7269616c204e465400000000000000000000000000000000000000008152506040518060400160405280600281526020017f4d4e0000000000000000000000000000000000000000000000000000000000008152508160009080519060200190620000c092919062000124565b508060019080519060200190620000d992919062000124565b50505080600760006101000a81548173ffffffffffffffffffffffffffffffffffffffff021916908373ffffffffffffffffffffffffffffffffffffffff16021790555050620002d5565b82805462000132906200029f565b90600052602060002090601f016020900481019282620001565760008555620001a2565b82601f106200017157805160ff1916838001178555620001a2565b82800160010185558215620001a2579182015b82811115620001a157825182559160200191906001019062000184565b5b509050620001b19190620001b5565b5090565b5b80821115620001d0576000816000905550600101620001b6565b5090565b600080fd5b600073ffffffffffffffffffffffffffffffffffffffff82169050919050565b60006200020682620001d9565b9050919050565b6200021881620001f9565b81146200022457600080fd5b50565b60008151905062000238816200020d565b92915050565b600060208284031215620002575762000256620001d4565b5b6000620002678482850162000227565b91505092915050565b7f4e487b7100000000000000000000000000000000000000000000000000000000600052602260045260246000fd5b60006002820490506001821680620002b857607f821691505b60208210811415620002cf57620002ce62000270565b5b50919050565b612a9c80620002e56000396000f3fe608060405234801561001057600080fd5b50600436106100f55760003560e01c80636352211e11610097578063b88d4fde11610066578063b88d4fde14610284578063c87b56dd146102a0578063dc384bfb146102d0578063e985e9c514610300576100f5565b80636352211e146101ea57806370a082311461021a57806395d89b411461024a578063a22cb46514610268576100f5565b8063095ea7b3116100d3578063095ea7b31461017857806323b872dd1461019457806342842e0e146101b05780634bce5588146101cc576100f5565b806301ffc9a7146100fa57806306fdde031461012a578063081812fc14610148575b600080fd5b610114600480360381019061010f91906118be565b610330565b6040516101219190611906565b60405180910390f35b610132610412565b60405161013f91906119ba565b60405180910390f35b610162600480360381019061015d9190611a12565b6104a4565b60405161016f9190611a80565b60405180910390f35b610192600480360381019061018d9190611ac7565b610529565b005b6101ae60048036038101906101a99190611b07565b610641565b005b6101ca60048036038101906101c59190611b07565b6106a1565b005b6101d46106c1565b6040516101e19190611a80565b60405180910390f35b61020460048036038101906101ff9190611a12565b6106e7565b6040516102119190611a80565b60405180910390f35b610234600480360381019061022f9190611b5a565b610799565b6040516102419190611b96565b60405180910390f35b610252610851565b60405161025f91906119ba565b60405180910390f35b610282600480360381019061027d9190611bdd565b6108e3565b005b61029e60048036038101906102999190611d52565b6108f9565b005b6102ba60048036038101906102b59190611a12565b61095b565b6040516102c791906119ba565b60405180910390f35b6102ea60048036038101906102e59190611dd5565b610a02565b6040516102f79190611906565b60405180910390f35b61031a60048036038101906103159190611e28565b610bb7565b6040516103279190611906565b60405180910390f35b60007f80ac58cd000000000000000000000000000000000000000000000000000000007bffffffffffffffffffffffffffffffffffffffffffffffffffffffff1916827bffffffffffffffffffffffffffffffffffffffffffffffffffffffff191614806103fb57507f5b5e139f000000000000000000000000000000000000000000000000000000007bffffffffffffffffffffffffffffffffffffffffffffffffffffffff1916827bffffffffffffffffffffffffffffffffffffffffffffffffffffffff1916145b8061040b575061040a82610c4b565b5b9050919050565b60606000805461042190611e97565b80601f016020809104026020016040519081016040528092919081815260200182805461044d90611e97565b801561049a5780601f1061046f5761010080835404028352916020019161049a565b820191906000526020600020905b81548152906001019060200180831161047d57829003601f168201915b5050505050905090565b60006104af82610cb5565b6104ee576040517f08c379a00000000000000000000000000000000000000000000000000000000081526004016104e590611f3b565b60405180910390fd5b6004600083815260200190815260200160002060009054906101000a900473ffffffffffffffffffffffffffffffffffffffff169050919050565b6000610534826106e7565b90508073ffffffffffffffffffffffffffffffffffffffff168373ffffffffffffffffffffffffffffffffffffffff1614156105a5576040517f08c379a000000000000000000000000000000000000000000000000000000000815260040161059c90611fcd565b60405180910390fd5b8073ffffffffffffffffffffffffffffffffffffffff166105c4610d21565b73ffffffffffffffffffffffffffffffffffffffff1614806105f357506105f2816105ed610d21565b610bb7565b5b610632576040517f08c379a00000000000000000000000000000000000000000000000000000000081526004016106299061205f565b60405180910390fd5b61063c8383610d29565b505050565b61065261064c610d21565b82610de2565b610691576040517f08c379a0000000000000000000000000000000000000000000000000000000008152600401610688906120f1565b60405180910390fd5b61069c838383610ec0565b505050565b6106bc838383604051806020016040528060008152506108f9565b505050565b600760009054906101000a900473ffffffffffffffffffffffffffffffffffffffff1681565b6000806002600084815260200190815260200160002060009054906101000a900473ffffffffffffffffffffffffffffffffffffffff169050600073ffffffffffffffffffffffffffffffffffffffff168173ffffffffffffffffffffffffffffffffffffffff161415610790576040517f08c379a000000000000000000000000000000000000000000000000000000000815260040161078790612183565b60405180910390fd5b80915050919050565b60008073ffffffffffffffffffffffffffffffffffffffff168273ffffffffffffffffffffffffffffffffffffffff16141561080a576040517f08c379a000000000000000000000000000000000000000000000000000000000815260040161080190612215565b60405180910390fd5b600360008373ffffffffffffffffffffffffffffffffffffffff1673ffffffffffffffffffffffffffffffffffffffff168152602001908152602001600020549050919050565b60606001805461086090611e97565b80601f016020809104026020016040519081016040528092919081815260200182805461088c90611e97565b80156108d95780601f106108ae576101008083540402835291602001916108d9565b820191906000526020600020905b8154815290600101906020018083116108bc57829003601f168201915b5050505050905090565b6108f56108ee610d21565b8383611127565b5050565b61090a610904610d21565b83610de2565b610949576040517f08c379a0000000000000000000000000000000000000000000000000000000008152600401610940906120f1565b60405180910390fd5b61095584848484611294565b50505050565b606061096682610cb5565b6109a5576040517f08c379a000000000000000000000000000000000000000000000000000000000815260040161099c906122a7565b60405180910390fd5b60006109af6112f0565b905060008151116109cf57604051806020016040528060008152506109fa565b806109d984611307565b6040516020016109ea929190612303565b6040516020818303038152906040525b915050919050565b6000610a2d7f80ac58cd00000000000000000000000000000000000000000000000000000000610330565b610a6c576040517f08c379a0000000000000000000000000000000000000000000000000000000008152600401610a6390612373565b60405180910390fd5b610a9c3360066000815480929190610a83906123c2565b9190505560405180602001604052806000815250611468565b8373ffffffffffffffffffffffffffffffffffffffff166323b872dd3330866040518463ffffffff1660e01b8152600401610ad99392919061240b565b600060405180830381600087803b158015610af357600080fd5b505af1158015610b07573d6000803e3d6000fd5b50505050600760009054906101000a900473ffffffffffffffffffffffffffffffffffffffff1673ffffffffffffffffffffffffffffffffffffffff1663a9059cbb33846040518363ffffffff1660e01b8152600401610b68929190612442565b6020604051808303816000875af1158015610b87573d6000803e3d6000fd5b505050506040513d601f19601f82011682018060405250810190610bab9190612480565b50600190509392505050565b6000600560008473ffffffffffffffffffffffffffffffffffffffff1673ffffffffffffffffffffffffffffffffffffffff16815260200190815260200160002060008373ffffffffffffffffffffffffffffffffffffffff1673ffffffffffffffffffffffffffffffffffffffff16815260200190815260200160002060009054906101000a900460ff16905092915050565b60007f01ffc9a7000000000000000000000000000000000000000000000000000000007bffffffffffffffffffffffffffffffffffffffffffffffffffffffff1916827bffffffffffffffffffffffffffffffffffffffffffffffffffffffff1916149050919050565b60008073ffffffffffffffffffffffffffffffffffffffff166002600084815260200190815260200160002060009054906101000a900473ffffffffffffffffffffffffffffffffffffffff1673ffffffffffffffffffffffffffffffffffffffff1614159050919050565b600033905090565b816004600083815260200190815260200160002060006101000a81548173ffffffffffffffffffffffffffffffffffffffff021916908373ffffffffffffffffffffffffffffffffffffffff160217905550808273ffffffffffffffffffffffffffffffffffffffff16610d9c836106e7565b73ffffffffffffffffffffffffffffffffffffffff167f8c5be1e5ebec7d5bd14f71427d1e84f3dd0314c0f7b2291e5b200ac8c7c3b92560405160405180910390a45050565b6000610ded82610cb5565b610e2c576040517f08c379a0000000000000000000000000000000000000000000000000000000008152600401610e239061251f565b60405180910390fd5b6000610e37836106e7565b90508073ffffffffffffffffffffffffffffffffffffffff168473ffffffffffffffffffffffffffffffffffffffff161480610ea657508373ffffffffffffffffffffffffffffffffffffffff16610e8e846104a4565b73ffffffffffffffffffffffffffffffffffffffff16145b80610eb75750610eb68185610bb7565b5b91505092915050565b8273ffffffffffffffffffffffffffffffffffffffff16610ee0826106e7565b73ffffffffffffffffffffffffffffffffffffffff1614610f36576040517f08c379a0000000000000000000000000000000000000000000000000000000008152600401610f2d906125b1565b60405180910390fd5b600073ffffffffffffffffffffffffffffffffffffffff168273ffffffffffffffffffffffffffffffffffffffff161415610fa6576040517f08c379a0000000000000000000000000000000000000000000000000000000008152600401610f9d90612643565b60405180910390fd5b610fb18383836114c3565b610fbc600082610d29565b6001600360008573ffffffffffffffffffffffffffffffffffffffff1673ffffffffffffffffffffffffffffffffffffffff168152602001908152602001600020600082825461100c9190612663565b925050819055506001600360008473ffffffffffffffffffffffffffffffffffffffff1673ffffffffffffffffffffffffffffffffffffffff16815260200190815260200160002060008282546110639190612697565b92505081905550816002600083815260200190815260200160002060006101000a81548173ffffffffffffffffffffffffffffffffffffffff021916908373ffffffffffffffffffffffffffffffffffffffff160217905550808273ffffffffffffffffffffffffffffffffffffffff168473ffffffffffffffffffffffffffffffffffffffff167fddf252ad1be2c89b69c2b068fc378daa952ba7f163c4a11628f55a4df523b3ef60405160405180910390a46111228383836114c8565b505050565b8173ffffffffffffffffffffffffffffffffffffffff168373ffffffffffffffffffffffffffffffffffffffff161415611196576040517f08c379a000000000000000000000000000000000000000000000000000000000815260040161118d90612739565b60405180910390fd5b80600560008573ffffffffffffffffffffffffffffffffffffffff1673ffffffffffffffffffffffffffffffffffffffff16815260200190815260200160002060008473ffffffffffffffffffffffffffffffffffffffff1673ffffffffffffffffffffffffffffffffffffffff16815260200190815260200160002060006101000a81548160ff0219169083151502179055508173ffffffffffffffffffffffffffffffffffffffff168373ffffffffffffffffffffffffffffffffffffffff167f17307eab39ab6107e8899845ad3d59bd9653f200f220920489ca2b5937696c31836040516112879190611906565b60405180910390a3505050565b61129f848484610ec0565b6112ab848484846114cd565b6112ea576040517f08c379a00000000000000000000000000000000000000000000000000000000081526004016112e1906127cb565b60405180910390fd5b50505050565b606060405180602001604052806000815250905090565b6060600082141561134f576040518060400160405280600181526020017f30000000000000000000000000000000000000000000000000000000000000008152509050611463565b600082905060005b6000821461138157808061136a906123c2565b915050600a8261137a919061281a565b9150611357565b60008167ffffffffffffffff81111561139d5761139c611c27565b5b6040519080825280601f01601f1916602001820160405280156113cf5781602001600182028036833780820191505090505b5090505b6000851461145c576001826113e89190612663565b9150600a856113f7919061284b565b60306114039190612697565b60f81b8183815181106114195761141861287c565b5b60200101907effffffffffffffffffffffffffffffffffffffffffffffffffffffffffffff1916908160001a905350600a85611455919061281a565b94506113d3565b8093505050505b919050565b6114728383611655565b61147f60008484846114cd565b6114be576040517f08c379a00000000000000000000000000000000000000000000000000000000081526004016114b5906127cb565b60405180910390fd5b505050565b505050565b505050565b60006114ee8473ffffffffffffffffffffffffffffffffffffffff1661182f565b15611648578373ffffffffffffffffffffffffffffffffffffffff1663150b7a02611517610d21565b8786866040518563ffffffff1660e01b81526004016115399493929190612900565b6020604051808303816000875af192505050801561157557506040513d601f19601f820116820180604052508101906115729190612961565b60015b6115f8573d80600081146115a5576040519150601f19603f3d011682016040523d82523d6000602084013e6115aa565b606091505b506000815114156115f0576040517f08c379a00000000000000000000000000000000000000000000000000000000081526004016115e7906127cb565b60405180910390fd5b805181602001fd5b63150b7a0260e01b7bffffffffffffffffffffffffffffffffffffffffffffffffffffffff1916817bffffffffffffffffffffffffffffffffffffffffffffffffffffffff19161491505061164d565b600190505b949350505050565b600073ffffffffffffffffffffffffffffffffffffffff168273ffffffffffffffffffffffffffffffffffffffff1614156116c5576040517f08c379a00000000000000000000000000000000000000000000000000000000081526004016116bc906129da565b60405180910390fd5b6116ce81610cb5565b1561170e576040517f08c379a000000000000000000000000000000000000000000000000000000000815260040161170590612a46565b60405180910390fd5b61171a600083836114c3565b6001600360008473ffffffffffffffffffffffffffffffffffffffff1673ffffffffffffffffffffffffffffffffffffffff168152602001908152602001600020600082825461176a9190612697565b92505081905550816002600083815260200190815260200160002060006101000a81548173ffffffffffffffffffffffffffffffffffffffff021916908373ffffffffffffffffffffffffffffffffffffffff160217905550808273ffffffffffffffffffffffffffffffffffffffff16600073ffffffffffffffffffffffffffffffffffffffff167fddf252ad1be2c89b69c2b068fc378daa952ba7f163c4a11628f55a4df523b3ef60405160405180910390a461182b600083836114c8565b5050565b6000808273ffffffffffffffffffffffffffffffffffffffff163b119050919050565b6000604051905090565b600080fd5b600080fd5b60007fffffffff0000000000000000000000000000000000000000000000000000000082169050919050565b61189b81611866565b81146118a657600080fd5b50565b6000813590506118b881611892565b92915050565b6000602082840312156118d4576118d361185c565b5b60006118e2848285016118a9565b91505092915050565b60008115159050919050565b611900816118eb565b82525050565b600060208201905061191b60008301846118f7565b92915050565b600081519050919050565b600082825260208201905092915050565b60005b8381101561195b578082015181840152602081019050611940565b8381111561196a576000848401525b50505050565b6000601f19601f8301169050919050565b600061198c82611921565b611996818561192c565b93506119a681856020860161193d565b6119af81611970565b840191505092915050565b600060208201905081810360008301526119d48184611981565b905092915050565b6000819050919050565b6119ef816119dc565b81146119fa57600080fd5b50565b600081359050611a0c816119e6565b92915050565b600060208284031215611a2857611a2761185c565b5b6000611a36848285016119fd565b91505092915050565b600073ffffffffffffffffffffffffffffffffffffffff82169050919050565b6000611a6a82611a3f565b9050919050565b611a7a81611a5f565b82525050565b6000602082019050611a956000830184611a71565b92915050565b611aa481611a5f565b8114611aaf57600080fd5b50565b600081359050611ac181611a9b565b92915050565b60008060408385031215611ade57611add61185c565b5b6000611aec85828601611ab2565b9250506020611afd858286016119fd565b9150509250929050565b600080600060608486031215611b2057611b1f61185c565b5b6000611b2e86828701611ab2565b9350506020611b3f86828701611ab2565b9250506040611b50868287016119fd565b9150509250925092565b600060208284031215611b7057611b6f61185c565b5b6000611b7e84828501611ab2565b91505092915050565b611b90816119dc565b82525050565b6000602082019050611bab6000830184611b87565b92915050565b611bba816118eb565b8114611bc557600080fd5b50565b600081359050611bd781611bb1565b92915050565b60008060408385031215611bf457611bf361185c565b5b6000611c0285828601611ab2565b9250506020611c1385828601611bc8565b9150509250929050565b600080fd5b600080fd5b7f4e487b7100000000000000000000000000000000000000000000000000000000600052604160045260246000fd5b611c5f82611970565b810181811067ffffffffffffffff82111715611c7e57611c7d611c27565b5b80604052505050565b6000611c91611852565b9050611c9d8282611c56565b919050565b600067ffffffffffffffff821115611cbd57611cbc611c27565b5b611cc682611970565b9050602081019050919050565b82818337600083830152505050565b6000611cf5611cf084611ca2565b611c87565b905082815260208101848484011115611d1157611d10611c22565b5b611d1c848285611cd3565b509392505050565b600082601f830112611d3957611d38611c1d565b5b8135611d49848260208601611ce2565b91505092915050565b60008060008060808587031215611d6c57611d6b61185c565b5b6000611d7a87828801611ab2565b9450506020611d8b87828801611ab2565b9350506040611d9c878288016119fd565b925050606085013567ffffffffffffffff811115611dbd57611dbc611861565b5b611dc987828801611d24565b91505092959194509250565b600080600060608486031215611dee57611ded61185c565b5b6000611dfc86828701611ab2565b9350506020611e0d868287016119fd565b9250506040611e1e868287016119fd565b9150509250925092565b60008060408385031215611e3f57611e3e61185c565b5b6000611e4d85828601611ab2565b9250506020611e5e85828601611ab2565b9150509250929050565b7f4e487b7100000000000000000000000000000000000000000000000000000000600052602260045260246000fd5b60006002820490506001821680611eaf57607f821691505b60208210811415611ec357611ec2611e68565b5b50919050565b7f4552433732313a20617070726f76656420717565727920666f72206e6f6e657860008201527f697374656e7420746f6b656e0000000000000000000000000000000000000000602082015250565b6000611f25602c8361192c565b9150611f3082611ec9565b604082019050919050565b60006020820190508181036000830152611f5481611f18565b9050919050565b7f4552433732313a20617070726f76616c20746f2063757272656e74206f776e6560008201527f7200000000000000000000000000000000000000000000000000000000000000602082015250565b6000611fb760218361192c565b9150611fc282611f5b565b604082019050919050565b60006020820190508181036000830152611fe681611faa565b9050919050565b7f4552433732313a20617070726f76652063616c6c6572206973206e6f74206f7760008201527f6e6572206e6f7220617070726f76656420666f7220616c6c0000000000000000602082015250565b600061204960388361192c565b915061205482611fed565b604082019050919050565b600060208201905081810360008301526120788161203c565b9050919050565b7f4552433732313a207472616e736665722063616c6c6572206973206e6f74206f60008201527f776e6572206e6f7220617070726f766564000000000000000000000000000000602082015250565b60006120db60318361192c565b91506120e68261207f565b604082019050919050565b6000602082019050818103600083015261210a816120ce565b9050919050565b7f4552433732313a206f776e657220717565727920666f72206e6f6e657869737460008201527f656e7420746f6b656e0000000000000000000000000000000000000000000000602082015250565b600061216d60298361192c565b915061217882612111565b604082019050919050565b6000602082019050818103600083015261219c81612160565b9050919050565b7f4552433732313a2062616c616e636520717565727920666f7220746865207a6560008201527f726f206164647265737300000000000000000000000000000000000000000000602082015250565b60006121ff602a8361192c565b915061220a826121a3565b604082019050919050565b6000602082019050818103600083015261222e816121f2565b9050919050565b7f4552433732314d657461646174613a2055524920717565727920666f72206e6f60008201527f6e6578697374656e7420746f6b656e0000000000000000000000000000000000602082015250565b6000612291602f8361192c565b915061229c82612235565b604082019050919050565b600060208201905081810360008301526122c081612284565b9050919050565b600081905092915050565b60006122dd82611921565b6122e781856122c7565b93506122f781856020860161193d565b80840191505092915050565b600061230f82856122d2565b915061231b82846122d2565b91508190509392505050565b7f4d75737420626520455243373231000000000000000000000000000000000000600082015250565b600061235d600e8361192c565b915061236882612327565b602082019050919050565b6000602082019050818103600083015261238c81612350565b9050919050565b7f4e487b7100000000000000000000000000000000000000000000000000000000600052601160045260246000fd5b60006123cd826119dc565b91507fffffffffffffffffffffffffffffffffffffffffffffffffffffffffffffffff821415612400576123ff612393565b5b600182019050919050565b60006060820190506124206000830186611a71565b61242d6020830185611a71565b61243a6040830184611b87565b949350505050565b60006040820190506124576000830185611a71565b6124646020830184611b87565b9392505050565b60008151905061247a81611bb1565b92915050565b6000602082840312156124965761249561185c565b5b60006124a48482850161246b565b91505092915050565b7f4552433732313a206f70657261746f7220717565727920666f72206e6f6e657860008201527f697374656e7420746f6b656e0000000000000000000000000000000000000000602082015250565b6000612509602c8361192c565b9150612514826124ad565b604082019050919050565b60006020820190508181036000830152612538816124fc565b9050919050565b7f4552433732313a207472616e736665722066726f6d20696e636f72726563742060008201527f6f776e6572000000000000000000000000000000000000000000000000000000602082015250565b600061259b60258361192c565b91506125a68261253f565b604082019050919050565b600060208201905081810360008301526125ca8161258e565b9050919050565b7f4552433732313a207472616e7366657220746f20746865207a65726f2061646460008201527f7265737300000000000000000000000000000000000000000000000000000000602082015250565b600061262d60248361192c565b9150612638826125d1565b604082019050919050565b6000602082019050818103600083015261265c81612620565b9050919050565b600061266e826119dc565b9150612679836119dc565b92508282101561268c5761268b612393565b5b828203905092915050565b60006126a2826119dc565b91506126ad836119dc565b9250827fffffffffffffffffffffffffffffffffffffffffffffffffffffffffffffffff038211156126e2576126e1612393565b5b828201905092915050565b7f4552433732313a20617070726f766520746f2063616c6c657200000000000000600082015250565b600061272360198361192c565b915061272e826126ed565b602082019050919050565b6000602082019050818103600083015261275281612716565b9050919050565b7f4552433732313a207472616e7366657220746f206e6f6e20455243373231526560008201527f63656976657220696d706c656d656e7465720000000000000000000000000000602082015250565b60006127b560328361192c565b91506127c082612759565b604082019050919050565b600060208201905081810360008301526127e4816127a8565b9050919050565b7f4e487b7100000000000000000000000000000000000000000000000000000000600052601260045260246000fd5b6000612825826119dc565b9150612830836119dc565b9250826128405761283f6127eb565b5b828204905092915050565b6000612856826119dc565b9150612861836119dc565b925082612871576128706127eb565b5b828206905092915050565b7f4e487b7100000000000000000000000000000000000000000000000000000000600052603260045260246000fd5b600081519050919050565b600082825260208201905092915050565b60006128d2826128ab565b6128dc81856128b6565b93506128ec81856020860161193d565b6128f581611970565b840191505092915050565b60006080820190506129156000830187611a71565b6129226020830186611a71565b61292f6040830185611b87565b818103606083015261294181846128c7565b905095945050505050565b60008151905061295b81611892565b92915050565b6000602082840312156129775761297661185c565b5b60006129858482850161294c565b91505092915050565b7f4552433732313a206d696e7420746f20746865207a65726f2061646472657373600082015250565b60006129c460208361192c565b91506129cf8261298e565b602082019050919050565b600060208201905081810360008301526129f3816129b7565b9050919050565b7f4552433732313a20746f6b656e20616c7265616479206d696e74656400000000600082015250565b6000612a30601c8361192c565b9150612a3b826129fa565b602082019050919050565b60006020820190508181036000830152612a5f81612a23565b905091905056fea264697066735822122089d565c3639fcf1482a29c6d6f62536ec22dce4eb9814a71783fd9667e80bb9e64736f6c634300080c0033",
  "immutableReferences": {},
  "source": "// SPDX-License-Identifier: MIT\r\n\r\npragma solidity ^0.8.0;\r\n\r\nimport \"@openzeppelin/contracts/token/ERC721/ERC721.sol\";\r\nimport \"@openzeppelin/contracts/utils/introspection/ERC165.sol\";\r\nimport \"@openzeppelin/contracts/token/ERC20/IERC20.sol\";\r\n\r\n//import \"./KlimaERC20.sol\";\r\n\r\ncontract MemorialNFT is ERC721 {\r\n\r\n    uint nextTokenId = 1; // count of reminted tokens is also used as the token ID\r\n    address public kt;\r\n\r\n    constructor(address _k) ERC721(\"Memorial NFT\", \"MN\") public {\r\n\r\n        // Create KLIMA ERC20 tokens by call ing the constructor\r\n        kt = _k;\r\n    } \r\n\r\n/*\r\n*   remint() takes an existing ERC721 and a Donation.\r\n*   The function then:\r\n*      - mints a new NFT\r\n*      - transfers it back tio the message sender\r\n*      - transfers the existing NFT to 'this'.\r\n*      - sends an amount of KLIMA to the msg.sender based on msg.value (1:1)\r\n* \r\n*   Assumption: The sender must approve this contract to transfer the old token.\r\n*      function approve(address to, uint256 tokenId) public virtual override\r\n*/\r\n\r\n    function remint(address _oldNFT, uint256 _id, uint256 tokensToSend) public returns (bool)  {\r\n        //require(ERC721(_oldNFT).ownerOf(_id) == msg.sender,\"Not owner\");\r\n        //require(msg.value >= 1, \"Insufficient funds\");\r\n        require(supportsInterface( type(IERC721).interfaceId), \"Must be ERC721\");\r\n\r\n        // Mint the NFT (needs to randomise)\r\n        _safeMint(msg.sender, nextTokenId++, \"\");\r\n\r\n        // Transfer the NFT to us. Assume it has been 'allowed'\r\n        ERC721(_oldNFT).transferFrom(msg.sender, address(this), _id);\r\n\r\n        // Send KLIMA tokens to the msg.sender\r\n        IERC20(kt).transfer(msg.sender, tokensToSend);\r\n\r\n        return (true);\r\n    }\r\n\r\n}",
  "sourcePath": "C:/Users/Riki/Desktop/Solidity/Bonfire/Merge/contracts/MemorialNft.sol",
  "compiler": {
    "name": "solc",
    "version": "0.8.12+commit.f00d7308.Emscripten.clang"
  },
  "schemaVersion": "3.3.4",
  "updatedAt": "2022-03-12T20:56:26.902Z",
  "networkType": "ethereum",
  "devdoc": {
    "kind": "dev",
    "methods": {
      "approve(address,uint256)": {
        "details": "See {IERC721-approve}."
      },
      "balanceOf(address)": {
        "details": "See {IERC721-balanceOf}."
      },
      "getApproved(uint256)": {
        "details": "See {IERC721-getApproved}."
      },
      "isApprovedForAll(address,address)": {
        "details": "See {IERC721-isApprovedForAll}."
      },
      "name()": {
        "details": "See {IERC721Metadata-name}."
      },
      "ownerOf(uint256)": {
        "details": "See {IERC721-ownerOf}."
      },
      "safeTransferFrom(address,address,uint256)": {
        "details": "See {IERC721-safeTransferFrom}."
      },
      "safeTransferFrom(address,address,uint256,bytes)": {
        "details": "See {IERC721-safeTransferFrom}."
      },
      "setApprovalForAll(address,bool)": {
        "details": "See {IERC721-setApprovalForAll}."
      },
      "supportsInterface(bytes4)": {
        "details": "See {IERC165-supportsInterface}."
      },
      "symbol()": {
        "details": "See {IERC721Metadata-symbol}."
      },
      "tokenURI(uint256)": {
        "details": "See {IERC721Metadata-tokenURI}."
      },
      "transferFrom(address,address,uint256)": {
        "details": "See {IERC721-transferFrom}."
      }
    },
    "version": 1
  },
  "userdoc": {
    "kind": "user",
    "methods": {},
    "version": 1
  }
}