{
  "contractName": "OldNft",
  "abi": [
    {
      "inputs": [],
      "stateMutability": "nonpayable",
      "type": "constructor"
    },
    {
      "anonymous": false,
      "inputs": [
        {
          "indexed": true,
          "internalType": "address",
          "name": "owner",
          "type": "address"
        },
        {
          "indexed": true,
          "internalType": "address",
          "name": "approved",
          "type": "address"
        },
        {
          "indexed": true,
          "internalType": "uint256",
          "name": "tokenId",
          "type": "uint256"
        }
      ],
      "name": "Approval",
      "type": "event"
    },
    {
      "anonymous": false,
      "inputs": [
        {
          "indexed": true,
          "internalType": "address",
          "name": "owner",
          "type": "address"
        },
        {
          "indexed": true,
          "internalType": "address",
          "name": "operator",
          "type": "address"
        },
        {
          "indexed": false,
          "internalType": "bool",
          "name": "approved",
          "type": "bool"
        }
      ],
      "name": "ApprovalForAll",
      "type": "event"
    },
    {
      "anonymous": false,
      "inputs": [
        {
          "indexed": true,
          "internalType": "address",
          "name": "from",
          "type": "address"
        },
        {
          "indexed": true,
          "internalType": "address",
          "name": "to",
          "type": "address"
        },
        {
          "indexed": true,
          "internalType": "uint256",
          "name": "tokenId",
          "type": "uint256"
        }
      ],
      "name": "Transfer",
      "type": "event"
    },
    {
      "inputs": [
        {
          "internalType": "address",
          "name": "",
          "type": "address"
        }
      ],
      "name": "_balances",
      "outputs": [
        {
          "internalType": "uint256",
          "name": "",
          "type": "uint256"
        }
      ],
      "stateMutability": "view",
      "type": "function",
      "constant": true
    },
    {
      "inputs": [
        {
          "internalType": "uint256",
          "name": "",
          "type": "uint256"
        }
      ],
      "name": "_owners",
      "outputs": [
        {
          "internalType": "address",
          "name": "",
          "type": "address"
        }
      ],
      "stateMutability": "view",
      "type": "function",
      "constant": true
    },
    {
      "inputs": [
        {
          "internalType": "address",
          "name": "to",
          "type": "address"
        },
        {
          "internalType": "uint256",
          "name": "tokenId",
          "type": "uint256"
        }
      ],
      "name": "approve",
      "outputs": [],
      "stateMutability": "nonpayable",
      "type": "function"
    },
    {
      "inputs": [
        {
          "internalType": "uint256",
          "name": "tokenId",
          "type": "uint256"
        }
      ],
      "name": "getApproved",
      "outputs": [
        {
          "internalType": "address",
          "name": "",
          "type": "address"
        }
      ],
      "stateMutability": "view",
      "type": "function",
      "constant": true
    },
    {
      "inputs": [
        {
          "internalType": "address",
          "name": "owner",
          "type": "address"
        },
        {
          "internalType": "address",
          "name": "operator",
          "type": "address"
        }
      ],
      "name": "isApprovedForAll",
      "outputs": [
        {
          "internalType": "bool",
          "name": "",
          "type": "bool"
        }
      ],
      "stateMutability": "view",
      "type": "function",
      "constant": true
    },
    {
      "inputs": [],
      "name": "name",
      "outputs": [
        {
          "internalType": "string",
          "name": "",
          "type": "string"
        }
      ],
      "stateMutability": "view",
      "type": "function",
      "constant": true
    },
    {
      "inputs": [
        {
          "internalType": "address",
          "name": "from",
          "type": "address"
        },
        {
          "internalType": "address",
          "name": "to",
          "type": "address"
        },
        {
          "internalType": "uint256",
          "name": "tokenId",
          "type": "uint256"
        }
      ],
      "name": "safeTransferFrom",
      "outputs": [],
      "stateMutability": "nonpayable",
      "type": "function"
    },
    {
      "inputs": [
        {
          "internalType": "address",
          "name": "from",
          "type": "address"
        },
        {
          "internalType": "address",
          "name": "to",
          "type": "address"
        },
        {
          "internalType": "uint256",
          "name": "tokenId",
          "type": "uint256"
        },
        {
          "internalType": "bytes",
          "name": "_data",
          "type": "bytes"
        }
      ],
      "name": "safeTransferFrom",
      "outputs": [],
      "stateMutability": "nonpayable",
      "type": "function"
    },
    {
      "inputs": [
        {
          "internalType": "address",
          "name": "operator",
          "type": "address"
        },
        {
          "internalType": "bool",
          "name": "approved",
          "type": "bool"
        }
      ],
      "name": "setApprovalForAll",
      "outputs": [],
      "stateMutability": "nonpayable",
      "type": "function"
    },
    {
      "inputs": [
        {
          "internalType": "bytes4",
          "name": "interfaceId",
          "type": "bytes4"
        }
      ],
      "name": "supportsInterface",
      "outputs": [
        {
          "internalType": "bool",
          "name": "",
          "type": "bool"
        }
      ],
      "stateMutability": "view",
      "type": "function",
      "constant": true
    },
    {
      "inputs": [],
      "name": "symbol",
      "outputs": [
        {
          "internalType": "string",
          "name": "",
          "type": "string"
        }
      ],
      "stateMutability": "view",
      "type": "function",
      "constant": true
    },
    {
      "inputs": [
        {
          "internalType": "uint256",
          "name": "tokenId",
          "type": "uint256"
        }
      ],
      "name": "tokenURI",
      "outputs": [
        {
          "internalType": "string",
          "name": "",
          "type": "string"
        }
      ],
      "stateMutability": "view",
      "type": "function",
      "constant": true
    },
    {
      "inputs": [
        {
          "internalType": "address",
          "name": "from",
          "type": "address"
        },
        {
          "internalType": "address",
          "name": "to",
          "type": "address"
        },
        {
          "internalType": "uint256",
          "name": "tokenId",
          "type": "uint256"
        }
      ],
      "name": "transferFrom",
      "outputs": [],
      "stateMutability": "nonpayable",
      "type": "function"
    },
    {
      "inputs": [
        {
          "internalType": "uint256",
          "name": "_tokenId",
          "type": "uint256"
        }
      ],
      "name": "ownerOf",
      "outputs": [
        {
          "internalType": "address",
          "name": "",
          "type": "address"
        }
      ],
      "stateMutability": "view",
      "type": "function",
      "constant": true
    },
    {
      "inputs": [
        {
          "internalType": "address",
          "name": "_owner",
          "type": "address"
        }
      ],
      "name": "balanceOf",
      "outputs": [
        {
          "internalType": "uint256",
          "name": "",
          "type": "uint256"
        }
      ],
      "stateMutability": "view",
      "type": "function",
      "constant": true
    },
    {
      "inputs": [],
      "name": "mintOldToken",
      "outputs": [],
      "stateMutability": "nonpayable",
      "type": "function"
    }
  ],
  "bytecode": "0x608060405260006006553480156200001657600080fd5b506040518060400160405280600681526020017f4f6c644e667400000000000000000000000000000000000000000000000000008152506040518060400160405280600281526020017f4f4e00000000000000000000000000000000000000000000000000000000000081525081600090805190602001906200009b929190620000bd565b508060019080519060200190620000b4929190620000bd565b505050620001d2565b828054620000cb906200019c565b90600052602060002090601f016020900481019282620000ef57600085556200013b565b82601f106200010a57805160ff19168380011785556200013b565b828001600101855582156200013b579182015b828111156200013a5782518255916020019190600101906200011d565b5b5090506200014a91906200014e565b5090565b5b80821115620001695760008160009055506001016200014f565b5090565b7f4e487b7100000000000000000000000000000000000000000000000000000000600052602260045260246000fd5b60006002820490506001821680620001b557607f821691505b60208210811415620001cc57620001cb6200016d565b5b50919050565b61275280620001e26000396000f3fe608060405234801561001057600080fd5b50600436106101005760003560e01c806370a0823111610097578063a22cb46511610066578063a22cb465146102bf578063b88d4fde146102db578063c87b56dd146102f7578063e985e9c51461032757610100565b806370a082311461023757806395d89b411461026757806397c45c1b14610285578063992924a61461028f57610100565b806323b872dd116100d357806323b872dd1461019f57806342842e0e146101bb5780636352211e146101d75780636ebcf6071461020757610100565b806301ffc9a71461010557806306fdde0314610135578063081812fc14610153578063095ea7b314610183575b600080fd5b61011f600480360381019061011a9190611767565b610357565b60405161012c91906117af565b60405180910390f35b61013d610439565b60405161014a9190611863565b60405180910390f35b61016d600480360381019061016891906118bb565b6104cb565b60405161017a9190611929565b60405180910390f35b61019d60048036038101906101989190611970565b610550565b005b6101b960048036038101906101b491906119b0565b610668565b005b6101d560048036038101906101d091906119b0565b6106c8565b005b6101f160048036038101906101ec91906118bb565b6106e8565b6040516101fe9190611929565b60405180910390f35b610221600480360381019061021c9190611a03565b610725565b60405161022e9190611a3f565b60405180910390f35b610251600480360381019061024c9190611a03565b61073d565b60405161025e9190611a3f565b60405180910390f35b61026f610786565b60405161027c9190611863565b60405180910390f35b61028d610818565b005b6102a960048036038101906102a491906118bb565b61083e565b6040516102b69190611929565b60405180910390f35b6102d960048036038101906102d49190611a86565b610871565b005b6102f560048036038101906102f09190611bfb565b610887565b005b610311600480360381019061030c91906118bb565b6108e9565b60405161031e9190611863565b60405180910390f35b610341600480360381019061033c9190611c7e565b610990565b60405161034e91906117af565b60405180910390f35b60007f80ac58cd000000000000000000000000000000000000000000000000000000007bffffffffffffffffffffffffffffffffffffffffffffffffffffffff1916827bffffffffffffffffffffffffffffffffffffffffffffffffffffffff1916148061042257507f5b5e139f000000000000000000000000000000000000000000000000000000007bffffffffffffffffffffffffffffffffffffffffffffffffffffffff1916827bffffffffffffffffffffffffffffffffffffffffffffffffffffffff1916145b80610432575061043182610a24565b5b9050919050565b60606000805461044890611ced565b80601f016020809104026020016040519081016040528092919081815260200182805461047490611ced565b80156104c15780601f10610496576101008083540402835291602001916104c1565b820191906000526020600020905b8154815290600101906020018083116104a457829003601f168201915b5050505050905090565b60006104d682610a8e565b610515576040517f08c379a000000000000000000000000000000000000000000000000000000000815260040161050c90611d91565b60405180910390fd5b6004600083815260200190815260200160002060009054906101000a900473ffffffffffffffffffffffffffffffffffffffff169050919050565b600061055b82610afa565b90508073ffffffffffffffffffffffffffffffffffffffff168373ffffffffffffffffffffffffffffffffffffffff1614156105cc576040517f08c379a00000000000000000000000000000000000000000000000000000000081526004016105c390611e23565b60405180910390fd5b8073ffffffffffffffffffffffffffffffffffffffff166105eb610bac565b73ffffffffffffffffffffffffffffffffffffffff16148061061a575061061981610614610bac565b610990565b5b610659576040517f08c379a000000000000000000000000000000000000000000000000000000000815260040161065090611eb5565b60405180910390fd5b6106638383610bb4565b505050565b610679610673610bac565b82610c6d565b6106b8576040517f08c379a00000000000000000000000000000000000000000000000000000000081526004016106af90611f47565b60405180910390fd5b6106c3838383610d4b565b505050565b6106e383838360405180602001604052806000815250610887565b505050565b60006002600083815260200190815260200160002060009054906101000a900473ffffffffffffffffffffffffffffffffffffffff169050919050565b60036020528060005260406000206000915090505481565b6000600360008373ffffffffffffffffffffffffffffffffffffffff1673ffffffffffffffffffffffffffffffffffffffff168152602001908152602001600020549050919050565b60606001805461079590611ced565b80601f01602080910402602001604051908101604052809291908181526020018280546107c190611ced565b801561080e5780601f106107e35761010080835404028352916020019161080e565b820191906000526020600020905b8154815290600101906020018083116107f157829003601f168201915b5050505050905090565b61082433600654610fb2565b6006600081548092919061083790611f96565b9190505550565b60026020528060005260406000206000915054906101000a900473ffffffffffffffffffffffffffffffffffffffff1681565b61088361087c610bac565b8383610fd0565b5050565b610898610892610bac565b83610c6d565b6108d7576040517f08c379a00000000000000000000000000000000000000000000000000000000081526004016108ce90611f47565b60405180910390fd5b6108e38484848461113d565b50505050565b60606108f482610a8e565b610933576040517f08c379a000000000000000000000000000000000000000000000000000000000815260040161092a90612051565b60405180910390fd5b600061093d611199565b9050600081511161095d5760405180602001604052806000815250610988565b80610967846111b0565b6040516020016109789291906120ad565b6040516020818303038152906040525b915050919050565b6000600560008473ffffffffffffffffffffffffffffffffffffffff1673ffffffffffffffffffffffffffffffffffffffff16815260200190815260200160002060008373ffffffffffffffffffffffffffffffffffffffff1673ffffffffffffffffffffffffffffffffffffffff16815260200190815260200160002060009054906101000a900460ff16905092915050565b60007f01ffc9a7000000000000000000000000000000000000000000000000000000007bffffffffffffffffffffffffffffffffffffffffffffffffffffffff1916827bffffffffffffffffffffffffffffffffffffffffffffffffffffffff1916149050919050565b60008073ffffffffffffffffffffffffffffffffffffffff166002600084815260200190815260200160002060009054906101000a900473ffffffffffffffffffffffffffffffffffffffff1673ffffffffffffffffffffffffffffffffffffffff1614159050919050565b6000806002600084815260200190815260200160002060009054906101000a900473ffffffffffffffffffffffffffffffffffffffff169050600073ffffffffffffffffffffffffffffffffffffffff168173ffffffffffffffffffffffffffffffffffffffff161415610ba3576040517f08c379a0000000000000000000000000000000000000000000000000000000008152600401610b9a90612143565b60405180910390fd5b80915050919050565b600033905090565b816004600083815260200190815260200160002060006101000a81548173ffffffffffffffffffffffffffffffffffffffff021916908373ffffffffffffffffffffffffffffffffffffffff160217905550808273ffffffffffffffffffffffffffffffffffffffff16610c2783610afa565b73ffffffffffffffffffffffffffffffffffffffff167f8c5be1e5ebec7d5bd14f71427d1e84f3dd0314c0f7b2291e5b200ac8c7c3b92560405160405180910390a45050565b6000610c7882610a8e565b610cb7576040517f08c379a0000000000000000000000000000000000000000000000000000000008152600401610cae906121d5565b60405180910390fd5b6000610cc283610afa565b90508073ffffffffffffffffffffffffffffffffffffffff168473ffffffffffffffffffffffffffffffffffffffff161480610d3157508373ffffffffffffffffffffffffffffffffffffffff16610d19846104cb565b73ffffffffffffffffffffffffffffffffffffffff16145b80610d425750610d418185610990565b5b91505092915050565b8273ffffffffffffffffffffffffffffffffffffffff16610d6b82610afa565b73ffffffffffffffffffffffffffffffffffffffff1614610dc1576040517f08c379a0000000000000000000000000000000000000000000000000000000008152600401610db890612267565b60405180910390fd5b600073ffffffffffffffffffffffffffffffffffffffff168273ffffffffffffffffffffffffffffffffffffffff161415610e31576040517f08c379a0000000000000000000000000000000000000000000000000000000008152600401610e28906122f9565b60405180910390fd5b610e3c838383611311565b610e47600082610bb4565b6001600360008573ffffffffffffffffffffffffffffffffffffffff1673ffffffffffffffffffffffffffffffffffffffff1681526020019081526020016000206000828254610e979190612319565b925050819055506001600360008473ffffffffffffffffffffffffffffffffffffffff1673ffffffffffffffffffffffffffffffffffffffff1681526020019081526020016000206000828254610eee919061234d565b92505081905550816002600083815260200190815260200160002060006101000a81548173ffffffffffffffffffffffffffffffffffffffff021916908373ffffffffffffffffffffffffffffffffffffffff160217905550808273ffffffffffffffffffffffffffffffffffffffff168473ffffffffffffffffffffffffffffffffffffffff167fddf252ad1be2c89b69c2b068fc378daa952ba7f163c4a11628f55a4df523b3ef60405160405180910390a4610fad838383611316565b505050565b610fcc82826040518060200160405280600081525061131b565b5050565b8173ffffffffffffffffffffffffffffffffffffffff168373ffffffffffffffffffffffffffffffffffffffff16141561103f576040517f08c379a0000000000000000000000000000000000000000000000000000000008152600401611036906123ef565b60405180910390fd5b80600560008573ffffffffffffffffffffffffffffffffffffffff1673ffffffffffffffffffffffffffffffffffffffff16815260200190815260200160002060008473ffffffffffffffffffffffffffffffffffffffff1673ffffffffffffffffffffffffffffffffffffffff16815260200190815260200160002060006101000a81548160ff0219169083151502179055508173ffffffffffffffffffffffffffffffffffffffff168373ffffffffffffffffffffffffffffffffffffffff167f17307eab39ab6107e8899845ad3d59bd9653f200f220920489ca2b5937696c318360405161113091906117af565b60405180910390a3505050565b611148848484610d4b565b61115484848484611376565b611193576040517f08c379a000000000000000000000000000000000000000000000000000000000815260040161118a90612481565b60405180910390fd5b50505050565b606060405180602001604052806000815250905090565b606060008214156111f8576040518060400160405280600181526020017f3000000000000000000000000000000000000000000000000000000000000000815250905061130c565b600082905060005b6000821461122a57808061121390611f96565b915050600a8261122391906124d0565b9150611200565b60008167ffffffffffffffff81111561124657611245611ad0565b5b6040519080825280601f01601f1916602001820160405280156112785781602001600182028036833780820191505090505b5090505b60008514611305576001826112919190612319565b9150600a856112a09190612501565b60306112ac919061234d565b60f81b8183815181106112c2576112c1612532565b5b60200101907effffffffffffffffffffffffffffffffffffffffffffffffffffffffffffff1916908160001a905350600a856112fe91906124d0565b945061127c565b8093505050505b919050565b505050565b505050565b61132583836114fe565b6113326000848484611376565b611371576040517f08c379a000000000000000000000000000000000000000000000000000000000815260040161136890612481565b60405180910390fd5b505050565b60006113978473ffffffffffffffffffffffffffffffffffffffff166116d8565b156114f1578373ffffffffffffffffffffffffffffffffffffffff1663150b7a026113c0610bac565b8786866040518563ffffffff1660e01b81526004016113e294939291906125b6565b6020604051808303816000875af192505050801561141e57506040513d601f19601f8201168201806040525081019061141b9190612617565b60015b6114a1573d806000811461144e576040519150601f19603f3d011682016040523d82523d6000602084013e611453565b606091505b50600081511415611499576040517f08c379a000000000000000000000000000000000000000000000000000000000815260040161149090612481565b60405180910390fd5b805181602001fd5b63150b7a0260e01b7bffffffffffffffffffffffffffffffffffffffffffffffffffffffff1916817bffffffffffffffffffffffffffffffffffffffffffffffffffffffff1916149150506114f6565b600190505b949350505050565b600073ffffffffffffffffffffffffffffffffffffffff168273ffffffffffffffffffffffffffffffffffffffff16141561156e576040517f08c379a000000000000000000000000000000000000000000000000000000000815260040161156590612690565b60405180910390fd5b61157781610a8e565b156115b7576040517f08c379a00000000000000000000000000000000000000000000000000000000081526004016115ae906126fc565b60405180910390fd5b6115c360008383611311565b6001600360008473ffffffffffffffffffffffffffffffffffffffff1673ffffffffffffffffffffffffffffffffffffffff1681526020019081526020016000206000828254611613919061234d565b92505081905550816002600083815260200190815260200160002060006101000a81548173ffffffffffffffffffffffffffffffffffffffff021916908373ffffffffffffffffffffffffffffffffffffffff160217905550808273ffffffffffffffffffffffffffffffffffffffff16600073ffffffffffffffffffffffffffffffffffffffff167fddf252ad1be2c89b69c2b068fc378daa952ba7f163c4a11628f55a4df523b3ef60405160405180910390a46116d460008383611316565b5050565b6000808273ffffffffffffffffffffffffffffffffffffffff163b119050919050565b6000604051905090565b600080fd5b600080fd5b60007fffffffff0000000000000000000000000000000000000000000000000000000082169050919050565b6117448161170f565b811461174f57600080fd5b50565b6000813590506117618161173b565b92915050565b60006020828403121561177d5761177c611705565b5b600061178b84828501611752565b91505092915050565b60008115159050919050565b6117a981611794565b82525050565b60006020820190506117c460008301846117a0565b92915050565b600081519050919050565b600082825260208201905092915050565b60005b838110156118045780820151818401526020810190506117e9565b83811115611813576000848401525b50505050565b6000601f19601f8301169050919050565b6000611835826117ca565b61183f81856117d5565b935061184f8185602086016117e6565b61185881611819565b840191505092915050565b6000602082019050818103600083015261187d818461182a565b905092915050565b6000819050919050565b61189881611885565b81146118a357600080fd5b50565b6000813590506118b58161188f565b92915050565b6000602082840312156118d1576118d0611705565b5b60006118df848285016118a6565b91505092915050565b600073ffffffffffffffffffffffffffffffffffffffff82169050919050565b6000611913826118e8565b9050919050565b61192381611908565b82525050565b600060208201905061193e600083018461191a565b92915050565b61194d81611908565b811461195857600080fd5b50565b60008135905061196a81611944565b92915050565b6000806040838503121561198757611986611705565b5b60006119958582860161195b565b92505060206119a6858286016118a6565b9150509250929050565b6000806000606084860312156119c9576119c8611705565b5b60006119d78682870161195b565b93505060206119e88682870161195b565b92505060406119f9868287016118a6565b9150509250925092565b600060208284031215611a1957611a18611705565b5b6000611a278482850161195b565b91505092915050565b611a3981611885565b82525050565b6000602082019050611a546000830184611a30565b92915050565b611a6381611794565b8114611a6e57600080fd5b50565b600081359050611a8081611a5a565b92915050565b60008060408385031215611a9d57611a9c611705565b5b6000611aab8582860161195b565b9250506020611abc85828601611a71565b9150509250929050565b600080fd5b600080fd5b7f4e487b7100000000000000000000000000000000000000000000000000000000600052604160045260246000fd5b611b0882611819565b810181811067ffffffffffffffff82111715611b2757611b26611ad0565b5b80604052505050565b6000611b3a6116fb565b9050611b468282611aff565b919050565b600067ffffffffffffffff821115611b6657611b65611ad0565b5b611b6f82611819565b9050602081019050919050565b82818337600083830152505050565b6000611b9e611b9984611b4b565b611b30565b905082815260208101848484011115611bba57611bb9611acb565b5b611bc5848285611b7c565b509392505050565b600082601f830112611be257611be1611ac6565b5b8135611bf2848260208601611b8b565b91505092915050565b60008060008060808587031215611c1557611c14611705565b5b6000611c238782880161195b565b9450506020611c348782880161195b565b9350506040611c45878288016118a6565b925050606085013567ffffffffffffffff811115611c6657611c6561170a565b5b611c7287828801611bcd565b91505092959194509250565b60008060408385031215611c9557611c94611705565b5b6000611ca38582860161195b565b9250506020611cb48582860161195b565b9150509250929050565b7f4e487b7100000000000000000000000000000000000000000000000000000000600052602260045260246000fd5b60006002820490506001821680611d0557607f821691505b60208210811415611d1957611d18611cbe565b5b50919050565b7f4552433732313a20617070726f76656420717565727920666f72206e6f6e657860008201527f697374656e7420746f6b656e0000000000000000000000000000000000000000602082015250565b6000611d7b602c836117d5565b9150611d8682611d1f565b604082019050919050565b60006020820190508181036000830152611daa81611d6e565b9050919050565b7f4552433732313a20617070726f76616c20746f2063757272656e74206f776e6560008201527f7200000000000000000000000000000000000000000000000000000000000000602082015250565b6000611e0d6021836117d5565b9150611e1882611db1565b604082019050919050565b60006020820190508181036000830152611e3c81611e00565b9050919050565b7f4552433732313a20617070726f76652063616c6c6572206973206e6f74206f7760008201527f6e6572206e6f7220617070726f76656420666f7220616c6c0000000000000000602082015250565b6000611e9f6038836117d5565b9150611eaa82611e43565b604082019050919050565b60006020820190508181036000830152611ece81611e92565b9050919050565b7f4552433732313a207472616e736665722063616c6c6572206973206e6f74206f60008201527f776e6572206e6f7220617070726f766564000000000000000000000000000000602082015250565b6000611f316031836117d5565b9150611f3c82611ed5565b604082019050919050565b60006020820190508181036000830152611f6081611f24565b9050919050565b7f4e487b7100000000000000000000000000000000000000000000000000000000600052601160045260246000fd5b6000611fa182611885565b91507fffffffffffffffffffffffffffffffffffffffffffffffffffffffffffffffff821415611fd457611fd3611f67565b5b600182019050919050565b7f4552433732314d657461646174613a2055524920717565727920666f72206e6f60008201527f6e6578697374656e7420746f6b656e0000000000000000000000000000000000602082015250565b600061203b602f836117d5565b915061204682611fdf565b604082019050919050565b6000602082019050818103600083015261206a8161202e565b9050919050565b600081905092915050565b6000612087826117ca565b6120918185612071565b93506120a18185602086016117e6565b80840191505092915050565b60006120b9828561207c565b91506120c5828461207c565b91508190509392505050565b7f4552433732313a206f776e657220717565727920666f72206e6f6e657869737460008201527f656e7420746f6b656e0000000000000000000000000000000000000000000000602082015250565b600061212d6029836117d5565b9150612138826120d1565b604082019050919050565b6000602082019050818103600083015261215c81612120565b9050919050565b7f4552433732313a206f70657261746f7220717565727920666f72206e6f6e657860008201527f697374656e7420746f6b656e0000000000000000000000000000000000000000602082015250565b60006121bf602c836117d5565b91506121ca82612163565b604082019050919050565b600060208201905081810360008301526121ee816121b2565b9050919050565b7f4552433732313a207472616e736665722066726f6d20696e636f72726563742060008201527f6f776e6572000000000000000000000000000000000000000000000000000000602082015250565b60006122516025836117d5565b915061225c826121f5565b604082019050919050565b6000602082019050818103600083015261228081612244565b9050919050565b7f4552433732313a207472616e7366657220746f20746865207a65726f2061646460008201527f7265737300000000000000000000000000000000000000000000000000000000602082015250565b60006122e36024836117d5565b91506122ee82612287565b604082019050919050565b60006020820190508181036000830152612312816122d6565b9050919050565b600061232482611885565b915061232f83611885565b92508282101561234257612341611f67565b5b828203905092915050565b600061235882611885565b915061236383611885565b9250827fffffffffffffffffffffffffffffffffffffffffffffffffffffffffffffffff0382111561239857612397611f67565b5b828201905092915050565b7f4552433732313a20617070726f766520746f2063616c6c657200000000000000600082015250565b60006123d96019836117d5565b91506123e4826123a3565b602082019050919050565b60006020820190508181036000830152612408816123cc565b9050919050565b7f4552433732313a207472616e7366657220746f206e6f6e20455243373231526560008201527f63656976657220696d706c656d656e7465720000000000000000000000000000602082015250565b600061246b6032836117d5565b91506124768261240f565b604082019050919050565b6000602082019050818103600083015261249a8161245e565b9050919050565b7f4e487b7100000000000000000000000000000000000000000000000000000000600052601260045260246000fd5b60006124db82611885565b91506124e683611885565b9250826124f6576124f56124a1565b5b828204905092915050565b600061250c82611885565b915061251783611885565b925082612527576125266124a1565b5b828206905092915050565b7f4e487b7100000000000000000000000000000000000000000000000000000000600052603260045260246000fd5b600081519050919050565b600082825260208201905092915050565b600061258882612561565b612592818561256c565b93506125a28185602086016117e6565b6125ab81611819565b840191505092915050565b60006080820190506125cb600083018761191a565b6125d8602083018661191a565b6125e56040830185611a30565b81810360608301526125f7818461257d565b905095945050505050565b6000815190506126118161173b565b92915050565b60006020828403121561262d5761262c611705565b5b600061263b84828501612602565b91505092915050565b7f4552433732313a206d696e7420746f20746865207a65726f2061646472657373600082015250565b600061267a6020836117d5565b915061268582612644565b602082019050919050565b600060208201905081810360008301526126a98161266d565b9050919050565b7f4552433732313a20746f6b656e20616c7265616479206d696e74656400000000600082015250565b60006126e6601c836117d5565b91506126f1826126b0565b602082019050919050565b60006020820190508181036000830152612715816126d9565b905091905056fea2646970667358221220fe2524d6e71a13c738852e90ca325efda1f1b4cf5e9346372715de6407aef61c64736f6c634300080c0033",
  "immutableReferences": {},
  "source": "// SPDX-License-Identifier: MIT\r\n\r\npragma solidity ^0.8.0;\r\n\r\nimport \"@openzeppelin/contracts/token/ERC721/ERC721.sol\";\r\n\r\n contract OldNft is ERC721  {\r\n\r\n    constructor() ERC721(\"OldNft\", \"ON\") public {\r\n\r\n    }\r\n    uint256 tokenId = 0;\r\n\r\n    function ownerOf(uint256 _tokenId) public override view returns (address) {\r\n        return _owners[_tokenId];\r\n    }\r\n\r\n    function balanceOf(address _owner) public view override returns(uint256){\r\n        return _balances[_owner];\r\n    }\r\n\r\n    function mintOldToken() public {\r\n        _safeMint(msg.sender, tokenId);\r\n        tokenId++;\r\n    }\r\n\r\n    function _burnOldToken(uint256 _tokenId) private {\r\n        _burn(_tokenId);\r\n    }\r\n\r\n    \r\n}",
  "sourcePath": "C:/Users/Riki/Desktop/Solidity/Nft Bonfire/contracts/OldNft.sol",
  "compiler": {
    "name": "solc",
    "version": "0.8.12+commit.f00d7308.Emscripten.clang"
  },
  "schemaVersion": "3.3.4",
  "updatedAt": "2022-03-08T15:10:05.352Z",
  "networkType": "ethereum",
  "devdoc": {
    "kind": "dev",
    "methods": {
      "approve(address,uint256)": {
        "details": "See {IERC721-approve}."
      },
      "getApproved(uint256)": {
        "details": "See {IERC721-getApproved}."
      },
      "isApprovedForAll(address,address)": {
        "details": "See {IERC721-isApprovedForAll}."
      },
      "name()": {
        "details": "See {IERC721Metadata-name}."
      },
      "safeTransferFrom(address,address,uint256)": {
        "details": "See {IERC721-safeTransferFrom}."
      },
      "safeTransferFrom(address,address,uint256,bytes)": {
        "details": "See {IERC721-safeTransferFrom}."
      },
      "setApprovalForAll(address,bool)": {
        "details": "See {IERC721-setApprovalForAll}."
      },
      "supportsInterface(bytes4)": {
        "details": "See {IERC165-supportsInterface}."
      },
      "symbol()": {
        "details": "See {IERC721Metadata-symbol}."
      },
      "tokenURI(uint256)": {
        "details": "See {IERC721Metadata-tokenURI}."
      },
      "transferFrom(address,address,uint256)": {
        "details": "See {IERC721-transferFrom}."
      }
    },
    "version": 1
  },
  "userdoc": {
    "kind": "user",
    "methods": {},
    "version": 1
  }
}