{
  "contractName": "TestNFT",
  "abi": [
    {
      "inputs": [],
      "stateMutability": "nonpayable",
      "type": "constructor"
    },
    {
      "anonymous": false,
      "inputs": [
        {
          "indexed": true,
          "internalType": "address",
          "name": "owner",
          "type": "address"
        },
        {
          "indexed": true,
          "internalType": "address",
          "name": "approved",
          "type": "address"
        },
        {
          "indexed": true,
          "internalType": "uint256",
          "name": "tokenId",
          "type": "uint256"
        }
      ],
      "name": "Approval",
      "type": "event"
    },
    {
      "anonymous": false,
      "inputs": [
        {
          "indexed": true,
          "internalType": "address",
          "name": "owner",
          "type": "address"
        },
        {
          "indexed": true,
          "internalType": "address",
          "name": "operator",
          "type": "address"
        },
        {
          "indexed": false,
          "internalType": "bool",
          "name": "approved",
          "type": "bool"
        }
      ],
      "name": "ApprovalForAll",
      "type": "event"
    },
    {
      "anonymous": false,
      "inputs": [
        {
          "indexed": true,
          "internalType": "address",
          "name": "from",
          "type": "address"
        },
        {
          "indexed": true,
          "internalType": "address",
          "name": "to",
          "type": "address"
        },
        {
          "indexed": true,
          "internalType": "uint256",
          "name": "tokenId",
          "type": "uint256"
        }
      ],
      "name": "Transfer",
      "type": "event"
    },
    {
      "inputs": [
        {
          "internalType": "address",
          "name": "",
          "type": "address"
        }
      ],
      "name": "_balances",
      "outputs": [
        {
          "internalType": "uint256",
          "name": "",
          "type": "uint256"
        }
      ],
      "stateMutability": "view",
      "type": "function",
      "constant": true
    },
    {
      "inputs": [
        {
          "internalType": "uint256",
          "name": "",
          "type": "uint256"
        }
      ],
      "name": "_owners",
      "outputs": [
        {
          "internalType": "address",
          "name": "",
          "type": "address"
        }
      ],
      "stateMutability": "view",
      "type": "function",
      "constant": true
    },
    {
      "inputs": [
        {
          "internalType": "address",
          "name": "to",
          "type": "address"
        },
        {
          "internalType": "uint256",
          "name": "tokenId",
          "type": "uint256"
        }
      ],
      "name": "approve",
      "outputs": [],
      "stateMutability": "nonpayable",
      "type": "function"
    },
    {
      "inputs": [
        {
          "internalType": "address",
          "name": "owner",
          "type": "address"
        }
      ],
      "name": "balanceOf",
      "outputs": [
        {
          "internalType": "uint256",
          "name": "",
          "type": "uint256"
        }
      ],
      "stateMutability": "view",
      "type": "function",
      "constant": true
    },
    {
      "inputs": [
        {
          "internalType": "uint256",
          "name": "tokenId",
          "type": "uint256"
        }
      ],
      "name": "getApproved",
      "outputs": [
        {
          "internalType": "address",
          "name": "",
          "type": "address"
        }
      ],
      "stateMutability": "view",
      "type": "function",
      "constant": true
    },
    {
      "inputs": [
        {
          "internalType": "address",
          "name": "owner",
          "type": "address"
        },
        {
          "internalType": "address",
          "name": "operator",
          "type": "address"
        }
      ],
      "name": "isApprovedForAll",
      "outputs": [
        {
          "internalType": "bool",
          "name": "",
          "type": "bool"
        }
      ],
      "stateMutability": "view",
      "type": "function",
      "constant": true
    },
    {
      "inputs": [],
      "name": "name",
      "outputs": [
        {
          "internalType": "string",
          "name": "",
          "type": "string"
        }
      ],
      "stateMutability": "view",
      "type": "function",
      "constant": true
    },
    {
      "inputs": [
        {
          "internalType": "uint256",
          "name": "tokenId",
          "type": "uint256"
        }
      ],
      "name": "ownerOf",
      "outputs": [
        {
          "internalType": "address",
          "name": "",
          "type": "address"
        }
      ],
      "stateMutability": "view",
      "type": "function",
      "constant": true
    },
    {
      "inputs": [
        {
          "internalType": "address",
          "name": "from",
          "type": "address"
        },
        {
          "internalType": "address",
          "name": "to",
          "type": "address"
        },
        {
          "internalType": "uint256",
          "name": "tokenId",
          "type": "uint256"
        }
      ],
      "name": "safeTransferFrom",
      "outputs": [],
      "stateMutability": "nonpayable",
      "type": "function"
    },
    {
      "inputs": [
        {
          "internalType": "address",
          "name": "from",
          "type": "address"
        },
        {
          "internalType": "address",
          "name": "to",
          "type": "address"
        },
        {
          "internalType": "uint256",
          "name": "tokenId",
          "type": "uint256"
        },
        {
          "internalType": "bytes",
          "name": "_data",
          "type": "bytes"
        }
      ],
      "name": "safeTransferFrom",
      "outputs": [],
      "stateMutability": "nonpayable",
      "type": "function"
    },
    {
      "inputs": [
        {
          "internalType": "address",
          "name": "operator",
          "type": "address"
        },
        {
          "internalType": "bool",
          "name": "approved",
          "type": "bool"
        }
      ],
      "name": "setApprovalForAll",
      "outputs": [],
      "stateMutability": "nonpayable",
      "type": "function"
    },
    {
      "inputs": [
        {
          "internalType": "bytes4",
          "name": "interfaceId",
          "type": "bytes4"
        }
      ],
      "name": "supportsInterface",
      "outputs": [
        {
          "internalType": "bool",
          "name": "",
          "type": "bool"
        }
      ],
      "stateMutability": "view",
      "type": "function",
      "constant": true
    },
    {
      "inputs": [],
      "name": "symbol",
      "outputs": [
        {
          "internalType": "string",
          "name": "",
          "type": "string"
        }
      ],
      "stateMutability": "view",
      "type": "function",
      "constant": true
    },
    {
      "inputs": [
        {
          "internalType": "uint256",
          "name": "tokenId",
          "type": "uint256"
        }
      ],
      "name": "tokenURI",
      "outputs": [
        {
          "internalType": "string",
          "name": "",
          "type": "string"
        }
      ],
      "stateMutability": "view",
      "type": "function",
      "constant": true
    },
    {
      "inputs": [
        {
          "internalType": "address",
          "name": "from",
          "type": "address"
        },
        {
          "internalType": "address",
          "name": "to",
          "type": "address"
        },
        {
          "internalType": "uint256",
          "name": "tokenId",
          "type": "uint256"
        }
      ],
      "name": "transferFrom",
      "outputs": [],
      "stateMutability": "nonpayable",
      "type": "function"
    }
  ],
  "bytecode": "0x608060405260016006553480156200001657600080fd5b506040518060400160405280600481526020017f54657374000000000000000000000000000000000000000000000000000000008152506040518060400160405280600381526020017f545454000000000000000000000000000000000000000000000000000000000081525081600090805190602001906200009b929190620005d4565b508060019080519060200190620000b4929190620005d4565b5050506000600190505b600a8160ff16116200011a57620001043360066000815480929190620000e490620006bd565b91905055604051806020016040528060008152506200012160201b60201c565b8080620001119062000718565b915050620000be565b5062000b78565b6200013383836200018f60201b60201c565b6200014860008484846200038960201b60201c565b6200018a576040517f08c379a00000000000000000000000000000000000000000000000000000000081526004016200018190620007ce565b60405180910390fd5b505050565b600073ffffffffffffffffffffffffffffffffffffffff168273ffffffffffffffffffffffffffffffffffffffff16141562000202576040517f08c379a0000000000000000000000000000000000000000000000000000000008152600401620001f99062000840565b60405180910390fd5b62000213816200053360201b60201c565b1562000256576040517f08c379a00000000000000000000000000000000000000000000000000000000081526004016200024d90620008b2565b60405180910390fd5b6200026a600083836200059f60201b60201c565b6001600360008473ffffffffffffffffffffffffffffffffffffffff1673ffffffffffffffffffffffffffffffffffffffff1681526020019081526020016000206000828254620002bc9190620008d4565b92505081905550816002600083815260200190815260200160002060006101000a81548173ffffffffffffffffffffffffffffffffffffffff021916908373ffffffffffffffffffffffffffffffffffffffff160217905550808273ffffffffffffffffffffffffffffffffffffffff16600073ffffffffffffffffffffffffffffffffffffffff167fddf252ad1be2c89b69c2b068fc378daa952ba7f163c4a11628f55a4df523b3ef60405160405180910390a46200038560008383620005a460201b60201c565b5050565b6000620003b78473ffffffffffffffffffffffffffffffffffffffff16620005a960201b62000acd1760201c565b1562000526578373ffffffffffffffffffffffffffffffffffffffff1663150b7a02620003e9620005cc60201b60201c565b8786866040518563ffffffff1660e01b81526004016200040d949392919062000a2b565b6020604051808303816000875af19250505080156200044c57506040513d601f19601f8201168201806040525081019062000449919062000ae1565b60015b620004d5573d80600081146200047f576040519150601f19603f3d011682016040523d82523d6000602084013e62000484565b606091505b50600081511415620004cd576040517f08c379a0000000000000000000000000000000000000000000000000000000008152600401620004c490620007ce565b60405180910390fd5b805181602001fd5b63150b7a0260e01b7bffffffffffffffffffffffffffffffffffffffffffffffffffffffff1916817bffffffffffffffffffffffffffffffffffffffffffffffffffffffff1916149150506200052b565b600190505b949350505050565b60008073ffffffffffffffffffffffffffffffffffffffff166002600084815260200190815260200160002060009054906101000a900473ffffffffffffffffffffffffffffffffffffffff1673ffffffffffffffffffffffffffffffffffffffff1614159050919050565b505050565b505050565b6000808273ffffffffffffffffffffffffffffffffffffffff163b119050919050565b600033905090565b828054620005e29062000b42565b90600052602060002090601f01602090048101928262000606576000855562000652565b82601f106200062157805160ff191683800117855562000652565b8280016001018555821562000652579182015b828111156200065157825182559160200191906001019062000634565b5b50905062000661919062000665565b5090565b5b808211156200068057600081600090555060010162000666565b5090565b7f4e487b7100000000000000000000000000000000000000000000000000000000600052601160045260246000fd5b6000819050919050565b6000620006ca82620006b3565b91507fffffffffffffffffffffffffffffffffffffffffffffffffffffffffffffffff8214156200070057620006ff62000684565b5b600182019050919050565b600060ff82169050919050565b600062000725826200070b565b915060ff8214156200073c576200073b62000684565b5b600182019050919050565b600082825260208201905092915050565b7f4552433732313a207472616e7366657220746f206e6f6e20455243373231526560008201527f63656976657220696d706c656d656e7465720000000000000000000000000000602082015250565b6000620007b660328362000747565b9150620007c38262000758565b604082019050919050565b60006020820190508181036000830152620007e981620007a7565b9050919050565b7f4552433732313a206d696e7420746f20746865207a65726f2061646472657373600082015250565b60006200082860208362000747565b91506200083582620007f0565b602082019050919050565b600060208201905081810360008301526200085b8162000819565b9050919050565b7f4552433732313a20746f6b656e20616c7265616479206d696e74656400000000600082015250565b60006200089a601c8362000747565b9150620008a78262000862565b602082019050919050565b60006020820190508181036000830152620008cd816200088b565b9050919050565b6000620008e182620006b3565b9150620008ee83620006b3565b9250827fffffffffffffffffffffffffffffffffffffffffffffffffffffffffffffffff0382111562000926576200092562000684565b5b828201905092915050565b600073ffffffffffffffffffffffffffffffffffffffff82169050919050565b60006200095e8262000931565b9050919050565b620009708162000951565b82525050565b6200098181620006b3565b82525050565b600081519050919050565b600082825260208201905092915050565b60005b83811015620009c3578082015181840152602081019050620009a6565b83811115620009d3576000848401525b50505050565b6000601f19601f8301169050919050565b6000620009f78262000987565b62000a03818562000992565b935062000a15818560208601620009a3565b62000a2081620009d9565b840191505092915050565b600060808201905062000a42600083018762000965565b62000a51602083018662000965565b62000a60604083018562000976565b818103606083015262000a748184620009ea565b905095945050505050565b600080fd5b60007fffffffff0000000000000000000000000000000000000000000000000000000082169050919050565b62000abb8162000a84565b811462000ac757600080fd5b50565b60008151905062000adb8162000ab0565b92915050565b60006020828403121562000afa5762000af962000a7f565b5b600062000b0a8482850162000aca565b91505092915050565b7f4e487b7100000000000000000000000000000000000000000000000000000000600052602260045260246000fd5b6000600282049050600182168062000b5b57607f821691505b6020821081141562000b725762000b7162000b13565b5b50919050565b6124b08062000b886000396000f3fe608060405234801561001057600080fd5b50600436106100f55760003560e01c80636ebcf60711610097578063a22cb46511610066578063a22cb465146102aa578063b88d4fde146102c6578063c87b56dd146102e2578063e985e9c514610312576100f5565b80636ebcf607146101fc57806370a082311461022c57806395d89b411461025c578063992924a61461027a576100f5565b8063095ea7b3116100d3578063095ea7b31461017857806323b872dd1461019457806342842e0e146101b05780636352211e146101cc576100f5565b806301ffc9a7146100fa57806306fdde031461012a578063081812fc14610148575b600080fd5b610114600480360381019061010f919061150b565b610342565b6040516101219190611553565b60405180910390f35b610132610424565b60405161013f9190611607565b60405180910390f35b610162600480360381019061015d919061165f565b6104b6565b60405161016f91906116cd565b60405180910390f35b610192600480360381019061018d9190611714565b61053b565b005b6101ae60048036038101906101a99190611754565b610653565b005b6101ca60048036038101906101c59190611754565b6106b3565b005b6101e660048036038101906101e1919061165f565b6106d3565b6040516101f391906116cd565b60405180910390f35b610216600480360381019061021191906117a7565b610785565b60405161022391906117e3565b60405180910390f35b610246600480360381019061024191906117a7565b61079d565b60405161025391906117e3565b60405180910390f35b610264610855565b6040516102719190611607565b60405180910390f35b610294600480360381019061028f919061165f565b6108e7565b6040516102a191906116cd565b60405180910390f35b6102c460048036038101906102bf919061182a565b61091a565b005b6102e060048036038101906102db919061199f565b610930565b005b6102fc60048036038101906102f7919061165f565b610992565b6040516103099190611607565b60405180910390f35b61032c60048036038101906103279190611a22565b610a39565b6040516103399190611553565b60405180910390f35b60007f80ac58cd000000000000000000000000000000000000000000000000000000007bffffffffffffffffffffffffffffffffffffffffffffffffffffffff1916827bffffffffffffffffffffffffffffffffffffffffffffffffffffffff1916148061040d57507f5b5e139f000000000000000000000000000000000000000000000000000000007bffffffffffffffffffffffffffffffffffffffffffffffffffffffff1916827bffffffffffffffffffffffffffffffffffffffffffffffffffffffff1916145b8061041d575061041c82610af0565b5b9050919050565b60606000805461043390611a91565b80601f016020809104026020016040519081016040528092919081815260200182805461045f90611a91565b80156104ac5780601f10610481576101008083540402835291602001916104ac565b820191906000526020600020905b81548152906001019060200180831161048f57829003601f168201915b5050505050905090565b60006104c182610b5a565b610500576040517f08c379a00000000000000000000000000000000000000000000000000000000081526004016104f790611b35565b60405180910390fd5b6004600083815260200190815260200160002060009054906101000a900473ffffffffffffffffffffffffffffffffffffffff169050919050565b6000610546826106d3565b90508073ffffffffffffffffffffffffffffffffffffffff168373ffffffffffffffffffffffffffffffffffffffff1614156105b7576040517f08c379a00000000000000000000000000000000000000000000000000000000081526004016105ae90611bc7565b60405180910390fd5b8073ffffffffffffffffffffffffffffffffffffffff166105d6610bc6565b73ffffffffffffffffffffffffffffffffffffffff1614806106055750610604816105ff610bc6565b610a39565b5b610644576040517f08c379a000000000000000000000000000000000000000000000000000000000815260040161063b90611c59565b60405180910390fd5b61064e8383610bce565b505050565b61066461065e610bc6565b82610c87565b6106a3576040517f08c379a000000000000000000000000000000000000000000000000000000000815260040161069a90611ceb565b60405180910390fd5b6106ae838383610d65565b505050565b6106ce83838360405180602001604052806000815250610930565b505050565b6000806002600084815260200190815260200160002060009054906101000a900473ffffffffffffffffffffffffffffffffffffffff169050600073ffffffffffffffffffffffffffffffffffffffff168173ffffffffffffffffffffffffffffffffffffffff16141561077c576040517f08c379a000000000000000000000000000000000000000000000000000000000815260040161077390611d7d565b60405180910390fd5b80915050919050565b60036020528060005260406000206000915090505481565b60008073ffffffffffffffffffffffffffffffffffffffff168273ffffffffffffffffffffffffffffffffffffffff16141561080e576040517f08c379a000000000000000000000000000000000000000000000000000000000815260040161080590611e0f565b60405180910390fd5b600360008373ffffffffffffffffffffffffffffffffffffffff1673ffffffffffffffffffffffffffffffffffffffff168152602001908152602001600020549050919050565b60606001805461086490611a91565b80601f016020809104026020016040519081016040528092919081815260200182805461089090611a91565b80156108dd5780601f106108b2576101008083540402835291602001916108dd565b820191906000526020600020905b8154815290600101906020018083116108c057829003601f168201915b5050505050905090565b60026020528060005260406000206000915054906101000a900473ffffffffffffffffffffffffffffffffffffffff1681565b61092c610925610bc6565b8383610fcc565b5050565b61094161093b610bc6565b83610c87565b610980576040517f08c379a000000000000000000000000000000000000000000000000000000000815260040161097790611ceb565b60405180910390fd5b61098c84848484611139565b50505050565b606061099d82610b5a565b6109dc576040517f08c379a00000000000000000000000000000000000000000000000000000000081526004016109d390611ea1565b60405180910390fd5b60006109e6611195565b90506000815111610a065760405180602001604052806000815250610a31565b80610a10846111ac565b604051602001610a21929190611efd565b6040516020818303038152906040525b915050919050565b6000600560008473ffffffffffffffffffffffffffffffffffffffff1673ffffffffffffffffffffffffffffffffffffffff16815260200190815260200160002060008373ffffffffffffffffffffffffffffffffffffffff1673ffffffffffffffffffffffffffffffffffffffff16815260200190815260200160002060009054906101000a900460ff16905092915050565b6000808273ffffffffffffffffffffffffffffffffffffffff163b119050919050565b60007f01ffc9a7000000000000000000000000000000000000000000000000000000007bffffffffffffffffffffffffffffffffffffffffffffffffffffffff1916827bffffffffffffffffffffffffffffffffffffffffffffffffffffffff1916149050919050565b60008073ffffffffffffffffffffffffffffffffffffffff166002600084815260200190815260200160002060009054906101000a900473ffffffffffffffffffffffffffffffffffffffff1673ffffffffffffffffffffffffffffffffffffffff1614159050919050565b600033905090565b816004600083815260200190815260200160002060006101000a81548173ffffffffffffffffffffffffffffffffffffffff021916908373ffffffffffffffffffffffffffffffffffffffff160217905550808273ffffffffffffffffffffffffffffffffffffffff16610c41836106d3565b73ffffffffffffffffffffffffffffffffffffffff167f8c5be1e5ebec7d5bd14f71427d1e84f3dd0314c0f7b2291e5b200ac8c7c3b92560405160405180910390a45050565b6000610c9282610b5a565b610cd1576040517f08c379a0000000000000000000000000000000000000000000000000000000008152600401610cc890611f93565b60405180910390fd5b6000610cdc836106d3565b90508073ffffffffffffffffffffffffffffffffffffffff168473ffffffffffffffffffffffffffffffffffffffff161480610d4b57508373ffffffffffffffffffffffffffffffffffffffff16610d33846104b6565b73ffffffffffffffffffffffffffffffffffffffff16145b80610d5c5750610d5b8185610a39565b5b91505092915050565b8273ffffffffffffffffffffffffffffffffffffffff16610d85826106d3565b73ffffffffffffffffffffffffffffffffffffffff1614610ddb576040517f08c379a0000000000000000000000000000000000000000000000000000000008152600401610dd290612025565b60405180910390fd5b600073ffffffffffffffffffffffffffffffffffffffff168273ffffffffffffffffffffffffffffffffffffffff161415610e4b576040517f08c379a0000000000000000000000000000000000000000000000000000000008152600401610e42906120b7565b60405180910390fd5b610e5683838361130d565b610e61600082610bce565b6001600360008573ffffffffffffffffffffffffffffffffffffffff1673ffffffffffffffffffffffffffffffffffffffff1681526020019081526020016000206000828254610eb19190612106565b925050819055506001600360008473ffffffffffffffffffffffffffffffffffffffff1673ffffffffffffffffffffffffffffffffffffffff1681526020019081526020016000206000828254610f08919061213a565b92505081905550816002600083815260200190815260200160002060006101000a81548173ffffffffffffffffffffffffffffffffffffffff021916908373ffffffffffffffffffffffffffffffffffffffff160217905550808273ffffffffffffffffffffffffffffffffffffffff168473ffffffffffffffffffffffffffffffffffffffff167fddf252ad1be2c89b69c2b068fc378daa952ba7f163c4a11628f55a4df523b3ef60405160405180910390a4610fc7838383611312565b505050565b8173ffffffffffffffffffffffffffffffffffffffff168373ffffffffffffffffffffffffffffffffffffffff16141561103b576040517f08c379a0000000000000000000000000000000000000000000000000000000008152600401611032906121dc565b60405180910390fd5b80600560008573ffffffffffffffffffffffffffffffffffffffff1673ffffffffffffffffffffffffffffffffffffffff16815260200190815260200160002060008473ffffffffffffffffffffffffffffffffffffffff1673ffffffffffffffffffffffffffffffffffffffff16815260200190815260200160002060006101000a81548160ff0219169083151502179055508173ffffffffffffffffffffffffffffffffffffffff168373ffffffffffffffffffffffffffffffffffffffff167f17307eab39ab6107e8899845ad3d59bd9653f200f220920489ca2b5937696c318360405161112c9190611553565b60405180910390a3505050565b611144848484610d65565b61115084848484611317565b61118f576040517f08c379a00000000000000000000000000000000000000000000000000000000081526004016111869061226e565b60405180910390fd5b50505050565b606060405180602001604052806000815250905090565b606060008214156111f4576040518060400160405280600181526020017f30000000000000000000000000000000000000000000000000000000000000008152509050611308565b600082905060005b6000821461122657808061120f9061228e565b915050600a8261121f9190612306565b91506111fc565b60008167ffffffffffffffff81111561124257611241611874565b5b6040519080825280601f01601f1916602001820160405280156112745781602001600182028036833780820191505090505b5090505b600085146113015760018261128d9190612106565b9150600a8561129c9190612337565b60306112a8919061213a565b60f81b8183815181106112be576112bd612368565b5b60200101907effffffffffffffffffffffffffffffffffffffffffffffffffffffffffffff1916908160001a905350600a856112fa9190612306565b9450611278565b8093505050505b919050565b505050565b505050565b60006113388473ffffffffffffffffffffffffffffffffffffffff16610acd565b15611492578373ffffffffffffffffffffffffffffffffffffffff1663150b7a02611361610bc6565b8786866040518563ffffffff1660e01b815260040161138394939291906123ec565b6020604051808303816000875af19250505080156113bf57506040513d601f19601f820116820180604052508101906113bc919061244d565b60015b611442573d80600081146113ef576040519150601f19603f3d011682016040523d82523d6000602084013e6113f4565b606091505b5060008151141561143a576040517f08c379a00000000000000000000000000000000000000000000000000000000081526004016114319061226e565b60405180910390fd5b805181602001fd5b63150b7a0260e01b7bffffffffffffffffffffffffffffffffffffffffffffffffffffffff1916817bffffffffffffffffffffffffffffffffffffffffffffffffffffffff191614915050611497565b600190505b949350505050565b6000604051905090565b600080fd5b600080fd5b60007fffffffff0000000000000000000000000000000000000000000000000000000082169050919050565b6114e8816114b3565b81146114f357600080fd5b50565b600081359050611505816114df565b92915050565b600060208284031215611521576115206114a9565b5b600061152f848285016114f6565b91505092915050565b60008115159050919050565b61154d81611538565b82525050565b60006020820190506115686000830184611544565b92915050565b600081519050919050565b600082825260208201905092915050565b60005b838110156115a857808201518184015260208101905061158d565b838111156115b7576000848401525b50505050565b6000601f19601f8301169050919050565b60006115d98261156e565b6115e38185611579565b93506115f381856020860161158a565b6115fc816115bd565b840191505092915050565b6000602082019050818103600083015261162181846115ce565b905092915050565b6000819050919050565b61163c81611629565b811461164757600080fd5b50565b60008135905061165981611633565b92915050565b600060208284031215611675576116746114a9565b5b60006116838482850161164a565b91505092915050565b600073ffffffffffffffffffffffffffffffffffffffff82169050919050565b60006116b78261168c565b9050919050565b6116c7816116ac565b82525050565b60006020820190506116e260008301846116be565b92915050565b6116f1816116ac565b81146116fc57600080fd5b50565b60008135905061170e816116e8565b92915050565b6000806040838503121561172b5761172a6114a9565b5b6000611739858286016116ff565b925050602061174a8582860161164a565b9150509250929050565b60008060006060848603121561176d5761176c6114a9565b5b600061177b868287016116ff565b935050602061178c868287016116ff565b925050604061179d8682870161164a565b9150509250925092565b6000602082840312156117bd576117bc6114a9565b5b60006117cb848285016116ff565b91505092915050565b6117dd81611629565b82525050565b60006020820190506117f860008301846117d4565b92915050565b61180781611538565b811461181257600080fd5b50565b600081359050611824816117fe565b92915050565b60008060408385031215611841576118406114a9565b5b600061184f858286016116ff565b925050602061186085828601611815565b9150509250929050565b600080fd5b600080fd5b7f4e487b7100000000000000000000000000000000000000000000000000000000600052604160045260246000fd5b6118ac826115bd565b810181811067ffffffffffffffff821117156118cb576118ca611874565b5b80604052505050565b60006118de61149f565b90506118ea82826118a3565b919050565b600067ffffffffffffffff82111561190a57611909611874565b5b611913826115bd565b9050602081019050919050565b82818337600083830152505050565b600061194261193d846118ef565b6118d4565b90508281526020810184848401111561195e5761195d61186f565b5b611969848285611920565b509392505050565b600082601f8301126119865761198561186a565b5b813561199684826020860161192f565b91505092915050565b600080600080608085870312156119b9576119b86114a9565b5b60006119c7878288016116ff565b94505060206119d8878288016116ff565b93505060406119e98782880161164a565b925050606085013567ffffffffffffffff811115611a0a57611a096114ae565b5b611a1687828801611971565b91505092959194509250565b60008060408385031215611a3957611a386114a9565b5b6000611a47858286016116ff565b9250506020611a58858286016116ff565b9150509250929050565b7f4e487b7100000000000000000000000000000000000000000000000000000000600052602260045260246000fd5b60006002820490506001821680611aa957607f821691505b60208210811415611abd57611abc611a62565b5b50919050565b7f4552433732313a20617070726f76656420717565727920666f72206e6f6e657860008201527f697374656e7420746f6b656e0000000000000000000000000000000000000000602082015250565b6000611b1f602c83611579565b9150611b2a82611ac3565b604082019050919050565b60006020820190508181036000830152611b4e81611b12565b9050919050565b7f4552433732313a20617070726f76616c20746f2063757272656e74206f776e6560008201527f7200000000000000000000000000000000000000000000000000000000000000602082015250565b6000611bb1602183611579565b9150611bbc82611b55565b604082019050919050565b60006020820190508181036000830152611be081611ba4565b9050919050565b7f4552433732313a20617070726f76652063616c6c6572206973206e6f74206f7760008201527f6e6572206e6f7220617070726f76656420666f7220616c6c0000000000000000602082015250565b6000611c43603883611579565b9150611c4e82611be7565b604082019050919050565b60006020820190508181036000830152611c7281611c36565b9050919050565b7f4552433732313a207472616e736665722063616c6c6572206973206e6f74206f60008201527f776e6572206e6f7220617070726f766564000000000000000000000000000000602082015250565b6000611cd5603183611579565b9150611ce082611c79565b604082019050919050565b60006020820190508181036000830152611d0481611cc8565b9050919050565b7f4552433732313a206f776e657220717565727920666f72206e6f6e657869737460008201527f656e7420746f6b656e0000000000000000000000000000000000000000000000602082015250565b6000611d67602983611579565b9150611d7282611d0b565b604082019050919050565b60006020820190508181036000830152611d9681611d5a565b9050919050565b7f4552433732313a2062616c616e636520717565727920666f7220746865207a6560008201527f726f206164647265737300000000000000000000000000000000000000000000602082015250565b6000611df9602a83611579565b9150611e0482611d9d565b604082019050919050565b60006020820190508181036000830152611e2881611dec565b9050919050565b7f4552433732314d657461646174613a2055524920717565727920666f72206e6f60008201527f6e6578697374656e7420746f6b656e0000000000000000000000000000000000602082015250565b6000611e8b602f83611579565b9150611e9682611e2f565b604082019050919050565b60006020820190508181036000830152611eba81611e7e565b9050919050565b600081905092915050565b6000611ed78261156e565b611ee18185611ec1565b9350611ef181856020860161158a565b80840191505092915050565b6000611f098285611ecc565b9150611f158284611ecc565b91508190509392505050565b7f4552433732313a206f70657261746f7220717565727920666f72206e6f6e657860008201527f697374656e7420746f6b656e0000000000000000000000000000000000000000602082015250565b6000611f7d602c83611579565b9150611f8882611f21565b604082019050919050565b60006020820190508181036000830152611fac81611f70565b9050919050565b7f4552433732313a207472616e736665722066726f6d20696e636f72726563742060008201527f6f776e6572000000000000000000000000000000000000000000000000000000602082015250565b600061200f602583611579565b915061201a82611fb3565b604082019050919050565b6000602082019050818103600083015261203e81612002565b9050919050565b7f4552433732313a207472616e7366657220746f20746865207a65726f2061646460008201527f7265737300000000000000000000000000000000000000000000000000000000602082015250565b60006120a1602483611579565b91506120ac82612045565b604082019050919050565b600060208201905081810360008301526120d081612094565b9050919050565b7f4e487b7100000000000000000000000000000000000000000000000000000000600052601160045260246000fd5b600061211182611629565b915061211c83611629565b92508282101561212f5761212e6120d7565b5b828203905092915050565b600061214582611629565b915061215083611629565b9250827fffffffffffffffffffffffffffffffffffffffffffffffffffffffffffffffff03821115612185576121846120d7565b5b828201905092915050565b7f4552433732313a20617070726f766520746f2063616c6c657200000000000000600082015250565b60006121c6601983611579565b91506121d182612190565b602082019050919050565b600060208201905081810360008301526121f5816121b9565b9050919050565b7f4552433732313a207472616e7366657220746f206e6f6e20455243373231526560008201527f63656976657220696d706c656d656e7465720000000000000000000000000000602082015250565b6000612258603283611579565b9150612263826121fc565b604082019050919050565b600060208201905081810360008301526122878161224b565b9050919050565b600061229982611629565b91507fffffffffffffffffffffffffffffffffffffffffffffffffffffffffffffffff8214156122cc576122cb6120d7565b5b600182019050919050565b7f4e487b7100000000000000000000000000000000000000000000000000000000600052601260045260246000fd5b600061231182611629565b915061231c83611629565b92508261232c5761232b6122d7565b5b828204905092915050565b600061234282611629565b915061234d83611629565b92508261235d5761235c6122d7565b5b828206905092915050565b7f4e487b7100000000000000000000000000000000000000000000000000000000600052603260045260246000fd5b600081519050919050565b600082825260208201905092915050565b60006123be82612397565b6123c881856123a2565b93506123d881856020860161158a565b6123e1816115bd565b840191505092915050565b600060808201905061240160008301876116be565b61240e60208301866116be565b61241b60408301856117d4565b818103606083015261242d81846123b3565b905095945050505050565b600081519050612447816114df565b92915050565b600060208284031215612463576124626114a9565b5b600061247184828501612438565b9150509291505056fea2646970667358221220d6589194e3036af1d61719431d50d664cd8d9e1ffb2d8ce7706b457cd9a89d4f64736f6c634300080c0033",
  "immutableReferences": {},
  "source": "// SPDX-License-Identifier: MIT\r\npragma solidity ^0.8.0;\r\n\r\nimport \"@openzeppelin/contracts/token/ERC721/ERC721.sol\";\r\nimport \"@openzeppelin/contracts/utils/introspection/ERC165.sol\";\r\n\r\ncontract TestNFT is ERC721 {\r\n\r\n\r\n    uint nextTokenId = 1; // count of reminted tokens is also used as the token ID\r\n\r\n    constructor() ERC721(\"Test\", \"TTT\"){\r\n\r\n        for (uint8 i=1;i<=10;i++){\r\n            _safeMint(msg.sender, nextTokenId++, \"\");\r\n        }\r\n    }\r\n\r\n}",
  "sourcePath": "C:/Users/Riki/Desktop/Solidity/Nft Bonfire/contracts/TestNFT.sol",
  "compiler": {
    "name": "solc",
    "version": "0.8.12+commit.f00d7308.Emscripten.clang"
  },
  "schemaVersion": "3.3.4",
  "updatedAt": "2022-03-11T10:28:21.577Z",
  "networkType": "ethereum",
  "devdoc": {
    "kind": "dev",
    "methods": {
      "approve(address,uint256)": {
        "details": "See {IERC721-approve}."
      },
      "balanceOf(address)": {
        "details": "See {IERC721-balanceOf}."
      },
      "getApproved(uint256)": {
        "details": "See {IERC721-getApproved}."
      },
      "isApprovedForAll(address,address)": {
        "details": "See {IERC721-isApprovedForAll}."
      },
      "name()": {
        "details": "See {IERC721Metadata-name}."
      },
      "ownerOf(uint256)": {
        "details": "See {IERC721-ownerOf}."
      },
      "safeTransferFrom(address,address,uint256)": {
        "details": "See {IERC721-safeTransferFrom}."
      },
      "safeTransferFrom(address,address,uint256,bytes)": {
        "details": "See {IERC721-safeTransferFrom}."
      },
      "setApprovalForAll(address,bool)": {
        "details": "See {IERC721-setApprovalForAll}."
      },
      "supportsInterface(bytes4)": {
        "details": "See {IERC165-supportsInterface}."
      },
      "symbol()": {
        "details": "See {IERC721Metadata-symbol}."
      },
      "tokenURI(uint256)": {
        "details": "See {IERC721Metadata-tokenURI}."
      },
      "transferFrom(address,address,uint256)": {
        "details": "See {IERC721-transferFrom}."
      }
    },
    "version": 1
  },
  "userdoc": {
    "kind": "user",
    "methods": {},
    "version": 1
  }
}